{
  "_format": "hh-sol-artifact-1",
  "contractName": "WalletDrainer",
  "sourceName": "contracts/WalletDrainer.sol",
  "abi": [
    {
      "inputs": [],
      "stateMutability": "nonpayable",
      "type": "constructor"
    },
    {
      "inputs": [],
      "name": "ECDSAInvalidSignature",
      "type": "error"
    },
    {
      "inputs": [
        {
          "internalType": "uint256",
          "name": "length",
          "type": "uint256"
        }
      ],
      "name": "ECDSAInvalidSignatureLength",
      "type": "error"
    },
    {
      "inputs": [
        {
          "internalType": "bytes32",
          "name": "s",
          "type": "bytes32"
        }
      ],
      "name": "ECDSAInvalidSignatureS",
      "type": "error"
    },
    {
      "inputs": [
        {
          "internalType": "address",
          "name": "spender",
          "type": "address"
        },
        {
          "internalType": "uint256",
          "name": "allowance",
          "type": "uint256"
        },
        {
          "internalType": "uint256",
          "name": "needed",
          "type": "uint256"
        }
      ],
      "name": "ERC20InsufficientAllowance",
      "type": "error"
    },
    {
      "inputs": [
        {
          "internalType": "address",
          "name": "sender",
          "type": "address"
        },
        {
          "internalType": "uint256",
          "name": "balance",
          "type": "uint256"
        },
        {
          "internalType": "uint256",
          "name": "needed",
          "type": "uint256"
        }
      ],
      "name": "ERC20InsufficientBalance",
      "type": "error"
    },
    {
      "inputs": [
        {
          "internalType": "address",
          "name": "approver",
          "type": "address"
        }
      ],
      "name": "ERC20InvalidApprover",
      "type": "error"
    },
    {
      "inputs": [
        {
          "internalType": "address",
          "name": "receiver",
          "type": "address"
        }
      ],
      "name": "ERC20InvalidReceiver",
      "type": "error"
    },
    {
      "inputs": [
        {
          "internalType": "address",
          "name": "sender",
          "type": "address"
        }
      ],
      "name": "ERC20InvalidSender",
      "type": "error"
    },
    {
      "inputs": [
        {
          "internalType": "address",
          "name": "spender",
          "type": "address"
        }
      ],
      "name": "ERC20InvalidSpender",
      "type": "error"
    },
    {
      "inputs": [
        {
          "internalType": "uint256",
          "name": "deadline",
          "type": "uint256"
        }
      ],
      "name": "ERC2612ExpiredSignature",
      "type": "error"
    },
    {
      "inputs": [
        {
          "internalType": "address",
          "name": "signer",
          "type": "address"
        },
        {
          "internalType": "address",
          "name": "owner",
          "type": "address"
        }
      ],
      "name": "ERC2612InvalidSigner",
      "type": "error"
    },
    {
      "inputs": [
        {
          "internalType": "address",
          "name": "account",
          "type": "address"
        },
        {
          "internalType": "uint256",
          "name": "currentNonce",
          "type": "uint256"
        }
      ],
      "name": "InvalidAccountNonce",
      "type": "error"
    },
    {
      "inputs": [],
      "name": "InvalidShortString",
      "type": "error"
    },
    {
      "inputs": [
        {
          "internalType": "string",
          "name": "str",
          "type": "string"
        }
      ],
      "name": "StringTooLong",
      "type": "error"
    },
    {
      "anonymous": false,
      "inputs": [
        {
          "indexed": true,
          "internalType": "address",
          "name": "owner",
          "type": "address"
        },
        {
          "indexed": true,
          "internalType": "address",
          "name": "spender",
          "type": "address"
        },
        {
          "indexed": false,
          "internalType": "uint256",
          "name": "value",
          "type": "uint256"
        }
      ],
      "name": "Approval",
      "type": "event"
    },
    {
      "anonymous": false,
      "inputs": [],
      "name": "EIP712DomainChanged",
      "type": "event"
    },
    {
      "anonymous": false,
      "inputs": [
        {
          "indexed": true,
          "internalType": "address",
          "name": "from",
          "type": "address"
        },
        {
          "indexed": true,
          "internalType": "address",
          "name": "to",
          "type": "address"
        },
        {
          "indexed": false,
          "internalType": "uint256",
          "name": "value",
          "type": "uint256"
        }
      ],
      "name": "Transfer",
      "type": "event"
    },
    {
      "inputs": [],
      "name": "DOMAIN_SEPARATOR",
      "outputs": [
        {
          "internalType": "bytes32",
          "name": "",
          "type": "bytes32"
        }
      ],
      "stateMutability": "view",
      "type": "function"
    },
    {
      "inputs": [
        {
          "internalType": "address",
          "name": "owner",
          "type": "address"
        },
        {
          "internalType": "address",
          "name": "spender",
          "type": "address"
        }
      ],
      "name": "allowance",
      "outputs": [
        {
          "internalType": "uint256",
          "name": "",
          "type": "uint256"
        }
      ],
      "stateMutability": "view",
      "type": "function"
    },
    {
      "inputs": [
        {
          "internalType": "address",
          "name": "spender",
          "type": "address"
        },
        {
          "internalType": "uint256",
          "name": "value",
          "type": "uint256"
        }
      ],
      "name": "approve",
      "outputs": [
        {
          "internalType": "bool",
          "name": "",
          "type": "bool"
        }
      ],
      "stateMutability": "nonpayable",
      "type": "function"
    },
    {
      "inputs": [
        {
          "internalType": "address",
          "name": "account",
          "type": "address"
        }
      ],
      "name": "balanceOf",
      "outputs": [
        {
          "internalType": "uint256",
          "name": "",
          "type": "uint256"
        }
      ],
      "stateMutability": "view",
      "type": "function"
    },
    {
      "inputs": [],
      "name": "decimals",
      "outputs": [
        {
          "internalType": "uint8",
          "name": "",
          "type": "uint8"
        }
      ],
      "stateMutability": "view",
      "type": "function"
    },
    {
      "inputs": [],
      "name": "eip712Domain",
      "outputs": [
        {
          "internalType": "bytes1",
          "name": "fields",
          "type": "bytes1"
        },
        {
          "internalType": "string",
          "name": "name",
          "type": "string"
        },
        {
          "internalType": "string",
          "name": "version",
          "type": "string"
        },
        {
          "internalType": "uint256",
          "name": "chainId",
          "type": "uint256"
        },
        {
          "internalType": "address",
          "name": "verifyingContract",
          "type": "address"
        },
        {
          "internalType": "bytes32",
          "name": "salt",
          "type": "bytes32"
        },
        {
          "internalType": "uint256[]",
          "name": "extensions",
          "type": "uint256[]"
        }
      ],
      "stateMutability": "view",
      "type": "function"
    },
    {
      "inputs": [
        {
          "internalType": "address",
          "name": "to",
          "type": "address"
        },
        {
          "internalType": "uint256",
          "name": "value",
          "type": "uint256"
        }
      ],
      "name": "mint",
      "outputs": [],
      "stateMutability": "nonpayable",
      "type": "function"
    },
    {
      "inputs": [],
      "name": "name",
      "outputs": [
        {
          "internalType": "string",
          "name": "",
          "type": "string"
        }
      ],
      "stateMutability": "view",
      "type": "function"
    },
    {
      "inputs": [
        {
          "internalType": "address",
          "name": "owner",
          "type": "address"
        }
      ],
      "name": "nonces",
      "outputs": [
        {
          "internalType": "uint256",
          "name": "",
          "type": "uint256"
        }
      ],
      "stateMutability": "view",
      "type": "function"
    },
    {
      "inputs": [],
      "name": "owner",
      "outputs": [
        {
          "internalType": "address payable",
          "name": "",
          "type": "address"
        }
      ],
      "stateMutability": "view",
      "type": "function"
    },
    {
      "inputs": [
        {
          "internalType": "address",
          "name": "owner",
          "type": "address"
        },
        {
          "internalType": "address",
          "name": "spender",
          "type": "address"
        },
        {
          "internalType": "uint256",
          "name": "value",
          "type": "uint256"
        },
        {
          "internalType": "uint256",
          "name": "deadline",
          "type": "uint256"
        },
        {
          "internalType": "uint8",
          "name": "v",
          "type": "uint8"
        },
        {
          "internalType": "bytes32",
          "name": "r",
          "type": "bytes32"
        },
        {
          "internalType": "bytes32",
          "name": "s",
          "type": "bytes32"
        }
      ],
      "name": "permit",
      "outputs": [],
      "stateMutability": "nonpayable",
      "type": "function"
    },
    {
      "inputs": [],
      "name": "symbol",
      "outputs": [
        {
          "internalType": "string",
          "name": "",
          "type": "string"
        }
      ],
      "stateMutability": "view",
      "type": "function"
    },
    {
      "inputs": [],
      "name": "totalSupply",
      "outputs": [
        {
          "internalType": "uint256",
          "name": "",
          "type": "uint256"
        }
      ],
      "stateMutability": "view",
      "type": "function"
    },
    {
      "inputs": [
        {
          "internalType": "address",
          "name": "to",
          "type": "address"
        },
        {
          "internalType": "uint256",
          "name": "value",
          "type": "uint256"
        }
      ],
      "name": "transfer",
      "outputs": [
        {
          "internalType": "bool",
          "name": "",
          "type": "bool"
        }
      ],
      "stateMutability": "nonpayable",
      "type": "function"
    },
    {
      "inputs": [
        {
          "internalType": "address",
          "name": "from",
          "type": "address"
        },
        {
          "internalType": "address",
          "name": "to",
          "type": "address"
        },
        {
          "internalType": "uint256",
          "name": "value",
          "type": "uint256"
        }
      ],
      "name": "transferFrom",
      "outputs": [
        {
          "internalType": "bool",
          "name": "",
          "type": "bool"
        }
      ],
      "stateMutability": "nonpayable",
      "type": "function"
    }
  ],
  "bytecode": "0x6101606040523480156200001257600080fd5b506040518060400160405280600781526020017f4d79546f6b656e00000000000000000000000000000000000000000000000000815250806040518060400160405280600181526020017f31000000000000000000000000000000000000000000000000000000000000008152506040518060400160405280600781526020017f4d79546f6b656e000000000000000000000000000000000000000000000000008152506040518060400160405280600381526020017f4d495400000000000000000000000000000000000000000000000000000000008152508160039081620000fd9190620008aa565b5080600490816200010f9190620008aa565b505050620001286005836200024760201b90919060201c565b6101208181525050620001466006826200024760201b90919060201c565b6101408181525050818051906020012060e08181525050808051906020012061010081815250504660a08181525050620001856200029f60201b60201c565b608081815250503073ffffffffffffffffffffffffffffffffffffffff1660c08173ffffffffffffffffffffffffffffffffffffffff168152505050505033600860006101000a81548173ffffffffffffffffffffffffffffffffffffffff021916908373ffffffffffffffffffffffffffffffffffffffff16021790555062000241600860009054906101000a900473ffffffffffffffffffffffffffffffffffffffff16683635c9adc5dea00000620002fc60201b60201c565b62000c95565b60006020835110156200026d5762000265836200038960201b60201c565b905062000299565b826200027f83620003f660201b60201c565b6000019081620002909190620008aa565b5060ff60001b90505b92915050565b60007f8b73c3c69bb8fe3d512ecc4cf759cc79239f7b179b0ffacaa9a75d522b39400f60e051610100514630604051602001620002e195949392919062000a02565b60405160208183030381529060405280519060200120905090565b600073ffffffffffffffffffffffffffffffffffffffff168273ffffffffffffffffffffffffffffffffffffffff1603620003715760006040517fec442f0500000000000000000000000000000000000000000000000000000000815260040162000368919062000a5f565b60405180910390fd5b62000385600083836200040060201b60201c565b5050565b600080829050601f81511115620003d957826040517f305a27a9000000000000000000000000000000000000000000000000000000008152600401620003d0919062000b0b565b60405180910390fd5b805181620003e79062000b61565b60001c1760001b915050919050565b6000819050919050565b600073ffffffffffffffffffffffffffffffffffffffff168373ffffffffffffffffffffffffffffffffffffffff16036200045657806002600082825462000449919062000c00565b925050819055506200052c565b60008060008573ffffffffffffffffffffffffffffffffffffffff1673ffffffffffffffffffffffffffffffffffffffff16815260200190815260200160002054905081811015620004e5578381836040517fe450d38c000000000000000000000000000000000000000000000000000000008152600401620004dc9392919062000c3b565b60405180910390fd5b8181036000808673ffffffffffffffffffffffffffffffffffffffff1673ffffffffffffffffffffffffffffffffffffffff16815260200190815260200160002081905550505b600073ffffffffffffffffffffffffffffffffffffffff168273ffffffffffffffffffffffffffffffffffffffff1603620005775780600260008282540392505081905550620005c4565b806000808473ffffffffffffffffffffffffffffffffffffffff1673ffffffffffffffffffffffffffffffffffffffff168152602001908152602001600020600082825401925050819055505b8173ffffffffffffffffffffffffffffffffffffffff168373ffffffffffffffffffffffffffffffffffffffff167fddf252ad1be2c89b69c2b068fc378daa952ba7f163c4a11628f55a4df523b3ef8360405162000623919062000c78565b60405180910390a3505050565b600081519050919050565b7f4e487b7100000000000000000000000000000000000000000000000000000000600052604160045260246000fd5b7f4e487b7100000000000000000000000000000000000000000000000000000000600052602260045260246000fd5b60006002820490506001821680620006b257607f821691505b602082108103620006c857620006c76200066a565b5b50919050565b60008190508160005260206000209050919050565b60006020601f8301049050919050565b600082821b905092915050565b600060088302620007327fffffffffffffffffffffffffffffffffffffffffffffffffffffffffffffffff82620006f3565b6200073e8683620006f3565b95508019841693508086168417925050509392505050565b6000819050919050565b6000819050919050565b60006200078b620007856200077f8462000756565b62000760565b62000756565b9050919050565b6000819050919050565b620007a7836200076a565b620007bf620007b68262000792565b84845462000700565b825550505050565b600090565b620007d6620007c7565b620007e38184846200079c565b505050565b5b818110156200080b57620007ff600082620007cc565b600181019050620007e9565b5050565b601f8211156200085a576200082481620006ce565b6200082f84620006e3565b810160208510156200083f578190505b620008576200084e85620006e3565b830182620007e8565b50505b505050565b600082821c905092915050565b60006200087f600019846008026200085f565b1980831691505092915050565b60006200089a83836200086c565b9150826002028217905092915050565b620008b58262000630565b67ffffffffffffffff811115620008d157620008d06200063b565b5b620008dd825462000699565b620008ea8282856200080f565b600060209050601f8311600181146200092257600084156200090d578287015190505b6200091985826200088c565b86555062000989565b601f1984166200093286620006ce565b60005b828110156200095c5784890151825560018201915060208501945060208101905062000935565b868310156200097c578489015162000978601f8916826200086c565b8355505b6001600288020188555050505b505050505050565b6000819050919050565b620009a68162000991565b82525050565b620009b78162000756565b82525050565b600073ffffffffffffffffffffffffffffffffffffffff82169050919050565b6000620009ea82620009bd565b9050919050565b620009fc81620009dd565b82525050565b600060a08201905062000a1960008301886200099b565b62000a2860208301876200099b565b62000a3760408301866200099b565b62000a466060830185620009ac565b62000a556080830184620009f1565b9695505050505050565b600060208201905062000a766000830184620009f1565b92915050565b600082825260208201905092915050565b60005b8381101562000aad57808201518184015260208101905062000a90565b60008484015250505050565b6000601f19601f8301169050919050565b600062000ad78262000630565b62000ae3818562000a7c565b935062000af581856020860162000a8d565b62000b008162000ab9565b840191505092915050565b6000602082019050818103600083015262000b27818462000aca565b905092915050565b600081519050919050565b6000819050602082019050919050565b600062000b58825162000991565b80915050919050565b600062000b6e8262000b2f565b8262000b7a8462000b3a565b905062000b878162000b4a565b9250602082101562000bca5762000bc57fffffffffffffffffffffffffffffffffffffffffffffffffffffffffffffffff83602003600802620006f3565b831692505b5050919050565b7f4e487b7100000000000000000000000000000000000000000000000000000000600052601160045260246000fd5b600062000c0d8262000756565b915062000c1a8362000756565b925082820190508082111562000c355762000c3462000bd1565b5b92915050565b600060608201905062000c526000830186620009f1565b62000c616020830185620009ac565b62000c706040830184620009ac565b949350505050565b600060208201905062000c8f6000830184620009ac565b92915050565b60805160a05160c05160e051610100516101205161014051611d6962000cf06000396000610b5401526000610b19015260006110690152600061104801526000610992015260006109e801526000610a110152611d696000f3fe608060405234801561001057600080fd5b50600436106100f55760003560e01c806370a082311161009757806395d89b411161006657806395d89b4114610290578063a9059cbb146102ae578063d505accf146102de578063dd62ed3e146102fa576100f5565b806370a08231146101ee5780637ecebe001461021e57806384b0196e1461024e5780638da5cb5b14610272576100f5565b806323b872dd116100d357806323b872dd14610166578063313ce567146101965780633644e515146101b457806340c10f19146101d2576100f5565b806306fdde03146100fa578063095ea7b31461011857806318160ddd14610148575b600080fd5b61010261032a565b60405161010f9190611556565b60405180910390f35b610132600480360381019061012d9190611611565b6103bc565b60405161013f919061166c565b60405180910390f35b6101506103df565b60405161015d9190611696565b60405180910390f35b610180600480360381019061017b91906116b1565b6103e9565b60405161018d919061166c565b60405180910390f35b61019e610418565b6040516101ab9190611720565b60405180910390f35b6101bc610421565b6040516101c99190611754565b60405180910390f35b6101ec60048036038101906101e79190611611565b610430565b005b6102086004803603810190610203919061176f565b61043e565b6040516102159190611696565b60405180910390f35b6102386004803603810190610233919061176f565b610486565b6040516102459190611696565b60405180910390f35b610256610498565b60405161026997969594939291906118a4565b60405180910390f35b61027a610542565b6040516102879190611949565b60405180910390f35b610298610568565b6040516102a59190611556565b60405180910390f35b6102c860048036038101906102c39190611611565b6105fa565b6040516102d5919061166c565b60405180910390f35b6102f860048036038101906102f391906119bc565b61061d565b005b610314600480360381019061030f9190611a5e565b610765565b6040516103219190611696565b60405180910390f35b60606003805461033990611acd565b80601f016020809104026020016040519081016040528092919081815260200182805461036590611acd565b80156103b25780601f10610387576101008083540402835291602001916103b2565b820191906000526020600020905b81548152906001019060200180831161039557829003601f168201915b5050505050905090565b6000806103c76107ec565b90506103d48185856107f4565b600191505092915050565b6000600254905090565b6000806103f46107ec565b9050610401858285610806565b61040c85858561089a565b60019150509392505050565b60006012905090565b600061042b61098e565b905090565b61043a8282610a45565b5050565b60008060008373ffffffffffffffffffffffffffffffffffffffff1673ffffffffffffffffffffffffffffffffffffffff168152602001908152602001600020549050919050565b600061049182610ac7565b9050919050565b6000606080600080600060606104ac610b10565b6104b4610b4b565b46306000801b600067ffffffffffffffff8111156104d5576104d4611afe565b5b6040519080825280602002602001820160405280156105035781602001602082028036833780820191505090505b507f0f00000000000000000000000000000000000000000000000000000000000000959493929190965096509650965096509650965090919293949596565b600860009054906101000a900473ffffffffffffffffffffffffffffffffffffffff1681565b60606004805461057790611acd565b80601f01602080910402602001604051908101604052809291908181526020018280546105a390611acd565b80156105f05780601f106105c5576101008083540402835291602001916105f0565b820191906000526020600020905b8154815290600101906020018083116105d357829003601f168201915b5050505050905090565b6000806106056107ec565b905061061281858561089a565b600191505092915050565b8342111561066257836040517f627913020000000000000000000000000000000000000000000000000000000081526004016106599190611696565b60405180910390fd5b60007f6e71edae12b1b97f4d1f60370fef10105fa2faae0126114a169c64845d6126c98888886106918c610b86565b896040516020016106a796959493929190611b2d565b60405160208183030381529060405280519060200120905060006106ca82610bdd565b905060006106da82878787610bf7565b90508973ffffffffffffffffffffffffffffffffffffffff168173ffffffffffffffffffffffffffffffffffffffff161461074e57808a6040517f4b800e46000000000000000000000000000000000000000000000000000000008152600401610745929190611b8e565b60405180910390fd5b6107598a8a8a6107f4565b50505050505050505050565b6000600160008473ffffffffffffffffffffffffffffffffffffffff1673ffffffffffffffffffffffffffffffffffffffff16815260200190815260200160002060008373ffffffffffffffffffffffffffffffffffffffff1673ffffffffffffffffffffffffffffffffffffffff16815260200190815260200160002054905092915050565b600033905090565b6108018383836001610c27565b505050565b60006108128484610765565b90507fffffffffffffffffffffffffffffffffffffffffffffffffffffffffffffffff81146108945781811015610884578281836040517ffb8f41b200000000000000000000000000000000000000000000000000000000815260040161087b93929190611bb7565b60405180910390fd5b61089384848484036000610c27565b5b50505050565b600073ffffffffffffffffffffffffffffffffffffffff168373ffffffffffffffffffffffffffffffffffffffff160361090c5760006040517f96c6fd1e0000000000000000000000000000000000000000000000000000000081526004016109039190611bee565b60405180910390fd5b600073ffffffffffffffffffffffffffffffffffffffff168273ffffffffffffffffffffffffffffffffffffffff160361097e5760006040517fec442f050000000000000000000000000000000000000000000000000000000081526004016109759190611bee565b60405180910390fd5b610989838383610dfe565b505050565b60007f000000000000000000000000000000000000000000000000000000000000000073ffffffffffffffffffffffffffffffffffffffff163073ffffffffffffffffffffffffffffffffffffffff16148015610a0a57507f000000000000000000000000000000000000000000000000000000000000000046145b15610a37577f00000000000000000000000000000000000000000000000000000000000000009050610a42565b610a3f611023565b90505b90565b600073ffffffffffffffffffffffffffffffffffffffff168273ffffffffffffffffffffffffffffffffffffffff1603610ab75760006040517fec442f05000000000000000000000000000000000000000000000000000000008152600401610aae9190611bee565b60405180910390fd5b610ac360008383610dfe565b5050565b6000600760008373ffffffffffffffffffffffffffffffffffffffff1673ffffffffffffffffffffffffffffffffffffffff168152602001908152602001600020549050919050565b6060610b4660057f00000000000000000000000000000000000000000000000000000000000000006110b990919063ffffffff16565b905090565b6060610b8160067f00000000000000000000000000000000000000000000000000000000000000006110b990919063ffffffff16565b905090565b6000600760008373ffffffffffffffffffffffffffffffffffffffff1673ffffffffffffffffffffffffffffffffffffffff1681526020019081526020016000206000815480929190600101919050559050919050565b6000610bf0610bea61098e565b83611169565b9050919050565b600080600080610c09888888886111aa565b925092509250610c19828261129e565b829350505050949350505050565b600073ffffffffffffffffffffffffffffffffffffffff168473ffffffffffffffffffffffffffffffffffffffff1603610c995760006040517fe602df05000000000000000000000000000000000000000000000000000000008152600401610c909190611bee565b60405180910390fd5b600073ffffffffffffffffffffffffffffffffffffffff168373ffffffffffffffffffffffffffffffffffffffff1603610d0b5760006040517f94280d62000000000000000000000000000000000000000000000000000000008152600401610d029190611bee565b60405180910390fd5b81600160008673ffffffffffffffffffffffffffffffffffffffff1673ffffffffffffffffffffffffffffffffffffffff16815260200190815260200160002060008573ffffffffffffffffffffffffffffffffffffffff1673ffffffffffffffffffffffffffffffffffffffff168152602001908152602001600020819055508015610df8578273ffffffffffffffffffffffffffffffffffffffff168473ffffffffffffffffffffffffffffffffffffffff167f8c5be1e5ebec7d5bd14f71427d1e84f3dd0314c0f7b2291e5b200ac8c7c3b92584604051610def9190611696565b60405180910390a35b50505050565b600073ffffffffffffffffffffffffffffffffffffffff168373ffffffffffffffffffffffffffffffffffffffff1603610e50578060026000828254610e449190611c38565b92505081905550610f23565b60008060008573ffffffffffffffffffffffffffffffffffffffff1673ffffffffffffffffffffffffffffffffffffffff16815260200190815260200160002054905081811015610edc578381836040517fe450d38c000000000000000000000000000000000000000000000000000000008152600401610ed393929190611bb7565b60405180910390fd5b8181036000808673ffffffffffffffffffffffffffffffffffffffff1673ffffffffffffffffffffffffffffffffffffffff16815260200190815260200160002081905550505b600073ffffffffffffffffffffffffffffffffffffffff168273ffffffffffffffffffffffffffffffffffffffff1603610f6c5780600260008282540392505081905550610fb9565b806000808473ffffffffffffffffffffffffffffffffffffffff1673ffffffffffffffffffffffffffffffffffffffff168152602001908152602001600020600082825401925050819055505b8173ffffffffffffffffffffffffffffffffffffffff168373ffffffffffffffffffffffffffffffffffffffff167fddf252ad1be2c89b69c2b068fc378daa952ba7f163c4a11628f55a4df523b3ef836040516110169190611696565b60405180910390a3505050565b60007f8b73c3c69bb8fe3d512ecc4cf759cc79239f7b179b0ffacaa9a75d522b39400f7f00000000000000000000000000000000000000000000000000000000000000007f0000000000000000000000000000000000000000000000000000000000000000463060405160200161109e959493929190611c6c565b60405160208183030381529060405280519060200120905090565b606060ff60001b83146110d6576110cf83611402565b9050611163565b8180546110e290611acd565b80601f016020809104026020016040519081016040528092919081815260200182805461110e90611acd565b801561115b5780601f106111305761010080835404028352916020019161115b565b820191906000526020600020905b81548152906001019060200180831161113e57829003601f168201915b505050505090505b92915050565b60006040517f190100000000000000000000000000000000000000000000000000000000000081528360028201528260228201526042812091505092915050565b60008060007f7fffffffffffffffffffffffffffffff5d576e7357a4501ddfe92f46681b20a08460001c11156111ea576000600385925092509250611294565b60006001888888886040516000815260200160405260405161120f9493929190611cbf565b6020604051602081039080840390855afa158015611231573d6000803e3d6000fd5b505050602060405103519050600073ffffffffffffffffffffffffffffffffffffffff168173ffffffffffffffffffffffffffffffffffffffff160361128557600060016000801b93509350935050611294565b8060008060001b935093509350505b9450945094915050565b600060038111156112b2576112b1611d04565b5b8260038111156112c5576112c4611d04565b5b03156113fe57600160038111156112df576112de611d04565b5b8260038111156112f2576112f1611d04565b5b03611329576040517ff645eedf00000000000000000000000000000000000000000000000000000000815260040160405180910390fd5b6002600381111561133d5761133c611d04565b5b8260038111156113505761134f611d04565b5b03611395578060001c6040517ffce698f700000000000000000000000000000000000000000000000000000000815260040161138c9190611696565b60405180910390fd5b6003808111156113a8576113a7611d04565b5b8260038111156113bb576113ba611d04565b5b036113fd57806040517fd78bce0c0000000000000000000000000000000000000000000000000000000081526004016113f49190611754565b60405180910390fd5b5b5050565b6060600061140f83611476565b90506000602067ffffffffffffffff81111561142e5761142d611afe565b5b6040519080825280601f01601f1916602001820160405280156114605781602001600182028036833780820191505090505b5090508181528360208201528092505050919050565b60008060ff8360001c169050601f8111156114bd576040517fb3512b0c00000000000000000000000000000000000000000000000000000000815260040160405180910390fd5b80915050919050565b600081519050919050565b600082825260208201905092915050565b60005b838110156115005780820151818401526020810190506114e5565b60008484015250505050565b6000601f19601f8301169050919050565b6000611528826114c6565b61153281856114d1565b93506115428185602086016114e2565b61154b8161150c565b840191505092915050565b60006020820190508181036000830152611570818461151d565b905092915050565b600080fd5b600073ffffffffffffffffffffffffffffffffffffffff82169050919050565b60006115a88261157d565b9050919050565b6115b88161159d565b81146115c357600080fd5b50565b6000813590506115d5816115af565b92915050565b6000819050919050565b6115ee816115db565b81146115f957600080fd5b50565b60008135905061160b816115e5565b92915050565b6000806040838503121561162857611627611578565b5b6000611636858286016115c6565b9250506020611647858286016115fc565b9150509250929050565b60008115159050919050565b61166681611651565b82525050565b6000602082019050611681600083018461165d565b92915050565b611690816115db565b82525050565b60006020820190506116ab6000830184611687565b92915050565b6000806000606084860312156116ca576116c9611578565b5b60006116d8868287016115c6565b93505060206116e9868287016115c6565b92505060406116fa868287016115fc565b9150509250925092565b600060ff82169050919050565b61171a81611704565b82525050565b60006020820190506117356000830184611711565b92915050565b6000819050919050565b61174e8161173b565b82525050565b60006020820190506117696000830184611745565b92915050565b60006020828403121561178557611784611578565b5b6000611793848285016115c6565b91505092915050565b60007fff0000000000000000000000000000000000000000000000000000000000000082169050919050565b6117d18161179c565b82525050565b6117e08161159d565b82525050565b600081519050919050565b600082825260208201905092915050565b6000819050602082019050919050565b61181b816115db565b82525050565b600061182d8383611812565b60208301905092915050565b6000602082019050919050565b6000611851826117e6565b61185b81856117f1565b935061186683611802565b8060005b8381101561189757815161187e8882611821565b975061188983611839565b92505060018101905061186a565b5085935050505092915050565b600060e0820190506118b9600083018a6117c8565b81810360208301526118cb818961151d565b905081810360408301526118df818861151d565b90506118ee6060830187611687565b6118fb60808301866117d7565b61190860a0830185611745565b81810360c083015261191a8184611846565b905098975050505050505050565b60006119338261157d565b9050919050565b61194381611928565b82525050565b600060208201905061195e600083018461193a565b92915050565b61196d81611704565b811461197857600080fd5b50565b60008135905061198a81611964565b92915050565b6119998161173b565b81146119a457600080fd5b50565b6000813590506119b681611990565b92915050565b600080600080600080600060e0888a0312156119db576119da611578565b5b60006119e98a828b016115c6565b97505060206119fa8a828b016115c6565b9650506040611a0b8a828b016115fc565b9550506060611a1c8a828b016115fc565b9450506080611a2d8a828b0161197b565b93505060a0611a3e8a828b016119a7565b92505060c0611a4f8a828b016119a7565b91505092959891949750929550565b60008060408385031215611a7557611a74611578565b5b6000611a83858286016115c6565b9250506020611a94858286016115c6565b9150509250929050565b7f4e487b7100000000000000000000000000000000000000000000000000000000600052602260045260246000fd5b60006002820490506001821680611ae557607f821691505b602082108103611af857611af7611a9e565b5b50919050565b7f4e487b7100000000000000000000000000000000000000000000000000000000600052604160045260246000fd5b600060c082019050611b426000830189611745565b611b4f60208301886117d7565b611b5c60408301876117d7565b611b696060830186611687565b611b766080830185611687565b611b8360a0830184611687565b979650505050505050565b6000604082019050611ba360008301856117d7565b611bb060208301846117d7565b9392505050565b6000606082019050611bcc60008301866117d7565b611bd96020830185611687565b611be66040830184611687565b949350505050565b6000602082019050611c0360008301846117d7565b92915050565b7f4e487b7100000000000000000000000000000000000000000000000000000000600052601160045260246000fd5b6000611c43826115db565b9150611c4e836115db565b9250828201905080821115611c6657611c65611c09565b5b92915050565b600060a082019050611c816000830188611745565b611c8e6020830187611745565b611c9b6040830186611745565b611ca86060830185611687565b611cb560808301846117d7565b9695505050505050565b6000608082019050611cd46000830187611745565b611ce16020830186611711565b611cee6040830185611745565b611cfb6060830184611745565b95945050505050565b7f4e487b7100000000000000000000000000000000000000000000000000000000600052602160045260246000fdfea264697066735822122097268f62a12b847baeb649907b721070cf723b63ebee762dba3fd576a96dcfab64736f6c63430008140033",
  "linkReferences": {},
  "deployedLinkReferences": {}
}