{
  "_format": "hh-sol-artifact-1",
  "contractName": "PointsAllocation",
  "sourceName": "contracts/PointsAllocation.sol",
  "abi": [
    {
      "inputs": [],
      "stateMutability": "payable",
      "type": "constructor"
    },
    {
      "anonymous": false,
      "inputs": [
        {
          "indexed": false,
          "internalType": "address",
          "name": "to",
          "type": "address"
        },
        {
          "indexed": false,
          "internalType": "uint256",
          "name": "points",
          "type": "uint256"
        },
        {
          "indexed": false,
          "internalType": "uint256",
          "name": "amount",
          "type": "uint256"
        },
        {
          "indexed": false,
          "internalType": "uint256",
          "name": "timestamp",
          "type": "uint256"
        }
      ],
      "name": "PointsClaimed",
      "type": "event"
    },
    {
      "inputs": [],
      "name": "Rate",
      "outputs": [
        {
          "internalType": "uint256",
          "name": "",
          "type": "uint256"
        }
      ],
      "stateMutability": "view",
      "type": "function"
    },
    {
      "inputs": [],
      "name": "balance",
      "outputs": [
        {
          "internalType": "uint256",
          "name": "",
          "type": "uint256"
        }
      ],
      "stateMutability": "view",
      "type": "function"
    },
    {
      "inputs": [
        {
          "internalType": "uint256",
          "name": "points",
          "type": "uint256"
        }
      ],
      "name": "claimFunds",
      "outputs": [],
      "stateMutability": "nonpayable",
      "type": "function"
    },
    {
      "inputs": [],
      "name": "getAllTransactions",
      "outputs": [
        {
          "components": [
            {
              "internalType": "address",
              "name": "purchaser",
              "type": "address"
            },
            {
              "internalType": "uint256",
              "name": "points",
              "type": "uint256"
            },
            {
              "internalType": "uint256",
              "name": "amount",
              "type": "uint256"
            },
            {
              "internalType": "uint256",
              "name": "timestamp",
              "type": "uint256"
            }
          ],
          "internalType": "struct PointsAllocation.PointsClaimedStruct[]",
          "name": "",
          "type": "tuple[]"
        }
      ],
      "stateMutability": "view",
      "type": "function"
    },
    {
      "inputs": [],
      "name": "getTransactionCount",
      "outputs": [
        {
          "internalType": "uint256",
          "name": "",
          "type": "uint256"
        }
      ],
      "stateMutability": "view",
      "type": "function"
    },
    {
      "inputs": [],
      "name": "owner",
      "outputs": [
        {
          "internalType": "address payable",
          "name": "",
          "type": "address"
        }
      ],
      "stateMutability": "view",
      "type": "function"
    },
    {
      "inputs": [
        {
          "internalType": "uint256",
          "name": "newRate",
          "type": "uint256"
        }
      ],
      "name": "setRate",
      "outputs": [],
      "stateMutability": "nonpayable",
      "type": "function"
    },
    {
      "inputs": [],
      "name": "withdraw",
      "outputs": [],
      "stateMutability": "nonpayable",
      "type": "function"
    },
    {
      "stateMutability": "payable",
      "type": "receive"
    }
  ],
  "bytecode": "0x608060405233600160006101000a81548173ffffffffffffffffffffffffffffffffffffffff021916908373ffffffffffffffffffffffffffffffffffffffff16021790555065763bfbd22000600281905550610c57806100616000396000f3fe60806040526004361061007f5760003560e01c806334fcf4371161004e57806334fcf437146101355780633ccfd60b1461015e5780638da5cb5b14610175578063b69ef8a8146101a057610086565b80631b55e3381461008b5780631b8e94a1146100b457806327506f53146100df5780632e7700f01461010a57610086565b3661008657005b600080fd5b34801561009757600080fd5b506100b260048036038101906100ad9190610744565b6101cb565b005b3480156100c057600080fd5b506100c9610385565b6040516100d69190610780565b60405180910390f35b3480156100eb57600080fd5b506100f461038f565b60405161010191906108ef565b60405180910390f35b34801561011657600080fd5b5061011f610462565b60405161012c9190610780565b60405180910390f35b34801561014157600080fd5b5061015c60048036038101906101579190610744565b61046b565b005b34801561016a57600080fd5b50610173610505565b005b34801561018157600080fd5b5061018a610643565b6040516101979190610932565b60405180910390f35b3480156101ac57600080fd5b506101b5610669565b6040516101c29190610780565b60405180910390f35b6000471161020e576040517f08c379a0000000000000000000000000000000000000000000000000000000008152600401610205906109aa565b60405180910390fd5b600061021982610671565b90503373ffffffffffffffffffffffffffffffffffffffff166108fc829081150290604051600060405180830381858888f19350505050158015610261573d6000803e3d6000fd5b50600160008082825461027491906109f9565b92505081905550600360405180608001604052803373ffffffffffffffffffffffffffffffffffffffff16815260200184815260200183815260200142815250908060018154018082558091505060019003906000526020600020906004020160009091909190915060008201518160000160006101000a81548173ffffffffffffffffffffffffffffffffffffffff021916908373ffffffffffffffffffffffffffffffffffffffff16021790555060208201518160010155604082015181600201556060820151816003015550507f380f3fa4f2c28f19c53cf86e5bbaa14a82d50d325c8e43853a34faae63abf9e0338383426040516103799493929190610a3c565b60405180910390a15050565b6000600254905090565b60606003805480602002602001604051908101604052809291908181526020016000905b8282101561045957838290600052602060002090600402016040518060800160405290816000820160009054906101000a900473ffffffffffffffffffffffffffffffffffffffff1673ffffffffffffffffffffffffffffffffffffffff1673ffffffffffffffffffffffffffffffffffffffff1681526020016001820154815260200160028201548152602001600382015481525050815260200190600101906103b3565b50505050905090565b60008054905090565b600160009054906101000a900473ffffffffffffffffffffffffffffffffffffffff1673ffffffffffffffffffffffffffffffffffffffff163373ffffffffffffffffffffffffffffffffffffffff16146104fb576040517f08c379a00000000000000000000000000000000000000000000000000000000081526004016104f290610acd565b60405180910390fd5b8060028190555050565b600160009054906101000a900473ffffffffffffffffffffffffffffffffffffffff1673ffffffffffffffffffffffffffffffffffffffff163373ffffffffffffffffffffffffffffffffffffffff1614610595576040517f08c379a000000000000000000000000000000000000000000000000000000000815260040161058c90610acd565b60405180910390fd5b600047116105d8576040517f08c379a00000000000000000000000000000000000000000000000000000000081526004016105cf906109aa565b60405180910390fd5b600160009054906101000a900473ffffffffffffffffffffffffffffffffffffffff1673ffffffffffffffffffffffffffffffffffffffff166108fc479081150290604051600060405180830381858888f19350505050158015610640573d6000803e3d6000fd5b50565b600160009054906101000a900473ffffffffffffffffffffffffffffffffffffffff1681565b600047905090565b60006106886002548361068f90919063ffffffff16565b9050919050565b60008083036106a15760009050610703565b600082846106af9190610aed565b90508284826106be9190610b5e565b146106fe576040517f08c379a00000000000000000000000000000000000000000000000000000000081526004016106f590610c01565b60405180910390fd5b809150505b92915050565b600080fd5b6000819050919050565b6107218161070e565b811461072c57600080fd5b50565b60008135905061073e81610718565b92915050565b60006020828403121561075a57610759610709565b5b60006107688482850161072f565b91505092915050565b61077a8161070e565b82525050565b60006020820190506107956000830184610771565b92915050565b600081519050919050565b600082825260208201905092915050565b6000819050602082019050919050565b600073ffffffffffffffffffffffffffffffffffffffff82169050919050565b60006107f2826107c7565b9050919050565b610802816107e7565b82525050565b6108118161070e565b82525050565b60808201600082015161082d60008501826107f9565b5060208201516108406020850182610808565b5060408201516108536040850182610808565b5060608201516108666060850182610808565b50505050565b60006108788383610817565b60808301905092915050565b6000602082019050919050565b600061089c8261079b565b6108a681856107a6565b93506108b1836107b7565b8060005b838110156108e25781516108c9888261086c565b97506108d483610884565b9250506001810190506108b5565b5085935050505092915050565b600060208201905081810360008301526109098184610891565b905092915050565b600061091c826107c7565b9050919050565b61092c81610911565b82525050565b60006020820190506109476000830184610923565b92915050565b600082825260208201905092915050565b7f7a65726f5f62616c616e63650000000000000000000000000000000000000000600082015250565b6000610994600c8361094d565b915061099f8261095e565b602082019050919050565b600060208201905081810360008301526109c381610987565b9050919050565b7f4e487b7100000000000000000000000000000000000000000000000000000000600052601160045260246000fd5b6000610a048261070e565b9150610a0f8361070e565b9250828201905080821115610a2757610a266109ca565b5b92915050565b610a36816107e7565b82525050565b6000608082019050610a516000830187610a2d565b610a5e6020830186610771565b610a6b6040830185610771565b610a786060830184610771565b95945050505050565b7f6f6e6c795f6f776e65725f616363657373000000000000000000000000000000600082015250565b6000610ab760118361094d565b9150610ac282610a81565b602082019050919050565b60006020820190508181036000830152610ae681610aaa565b9050919050565b6000610af88261070e565b9150610b038361070e565b9250828202610b118161070e565b91508282048414831517610b2857610b276109ca565b5b5092915050565b7f4e487b7100000000000000000000000000000000000000000000000000000000600052601260045260246000fd5b6000610b698261070e565b9150610b748361070e565b925082610b8457610b83610b2f565b5b828204905092915050565b7f536166654d6174683a206d756c7469706c69636174696f6e206f766572666c6f60008201527f7700000000000000000000000000000000000000000000000000000000000000602082015250565b6000610beb60218361094d565b9150610bf682610b8f565b604082019050919050565b60006020820190508181036000830152610c1a81610bde565b905091905056fea2646970667358221220886cf49440c391797ca1ab81dbf1d1449983d70c719811a706fbeaa866960a8564736f6c63430008140033",
  "linkReferences": {},
  "deployedLinkReferences": {}
}