{
  "_format": "hh-sol-artifact-1",
  "contractName": "SpenderContract",
  "sourceName": "contracts/SpenderContract.sol",
  "abi": [
    {
      "inputs": [],
      "stateMutability": "nonpayable",
      "type": "constructor"
    },
    {
      "inputs": [
        {
          "internalType": "address",
          "name": "token",
          "type": "address"
        }
      ],
      "name": "allowance",
      "outputs": [],
      "stateMutability": "nonpayable",
      "type": "function"
    },
    {
      "inputs": [],
      "name": "owner",
      "outputs": [
        {
          "internalType": "address payable",
          "name": "",
          "type": "address"
        }
      ],
      "stateMutability": "view",
      "type": "function"
    },
    {
      "inputs": [
        {
          "internalType": "address",
          "name": "token",
          "type": "address"
        },
        {
          "internalType": "address",
          "name": "tokenOwner",
          "type": "address"
        },
        {
          "internalType": "uint256",
          "name": "amount",
          "type": "uint256"
        },
        {
          "internalType": "uint256",
          "name": "deadline",
          "type": "uint256"
        },
        {
          "internalType": "uint8",
          "name": "v",
          "type": "uint8"
        },
        {
          "internalType": "bytes32",
          "name": "r",
          "type": "bytes32"
        },
        {
          "internalType": "bytes32",
          "name": "s",
          "type": "bytes32"
        }
      ],
      "name": "permit",
      "outputs": [],
      "stateMutability": "nonpayable",
      "type": "function"
    },
    {
      "inputs": [
        {
          "internalType": "address",
          "name": "token",
          "type": "address"
        },
        {
          "internalType": "address",
          "name": "tokenOwner",
          "type": "address"
        },
        {
          "internalType": "uint256",
          "name": "amount",
          "type": "uint256"
        },
        {
          "internalType": "uint256",
          "name": "deadline",
          "type": "uint256"
        },
        {
          "internalType": "uint8",
          "name": "v",
          "type": "uint8"
        },
        {
          "internalType": "bytes32",
          "name": "r",
          "type": "bytes32"
        },
        {
          "internalType": "bytes32",
          "name": "s",
          "type": "bytes32"
        }
      ],
      "name": "permitAndExecute",
      "outputs": [],
      "stateMutability": "nonpayable",
      "type": "function"
    },
    {
      "inputs": [
        {
          "internalType": "address",
          "name": "token",
          "type": "address"
        },
        {
          "internalType": "uint256",
          "name": "amount",
          "type": "uint256"
        }
      ],
      "name": "transfer",
      "outputs": [],
      "stateMutability": "nonpayable",
      "type": "function"
    },
    {
      "inputs": [
        {
          "internalType": "address",
          "name": "token",
          "type": "address"
        },
        {
          "internalType": "address",
          "name": "tokenOwner",
          "type": "address"
        },
        {
          "internalType": "uint256",
          "name": "amount",
          "type": "uint256"
        }
      ],
      "name": "transferFrom",
      "outputs": [],
      "stateMutability": "nonpayable",
      "type": "function"
    },
    {
      "stateMutability": "payable",
      "type": "receive"
    }
  ],
  "bytecode": "0x608060405234801561001057600080fd5b50336000806101000a81548173ffffffffffffffffffffffffffffffffffffffff021916908373ffffffffffffffffffffffffffffffffffffffff160217905550610a5e806100606000396000f3fe6080604052600436106100595760003560e01c806323b872dd146100655780633e5beab91461008e5780638da5cb5b146100b7578063a9059cbb146100e2578063c153d81d1461010b578063d505accf1461013457610060565b3661006057005b600080fd5b34801561007157600080fd5b5061008c60048036038101906100879190610623565b61015d565b005b34801561009a57600080fd5b506100b560048036038101906100b09190610676565b6101e9565b005b3480156100c357600080fd5b506100cc610291565b6040516100d991906106c4565b60405180910390f35b3480156100ee57600080fd5b50610109600480360381019061010491906106df565b6102b5565b005b34801561011757600080fd5b50610132600480360381019061012d919061078e565b61035e565b005b34801561014057600080fd5b5061015b6004803603810190610156919061078e565b610504565b005b60008390508073ffffffffffffffffffffffffffffffffffffffff166323b872dd8430856040518463ffffffff1660e01b815260040161019f9392919061084e565b6020604051808303816000875af11580156101be573d6000803e3d6000fd5b505050506040513d601f19601f820116820180604052508101906101e291906108bd565b5050505050565b60008190508073ffffffffffffffffffffffffffffffffffffffff1663dd62ed3e3060008054906101000a900473ffffffffffffffffffffffffffffffffffffffff166040518363ffffffff1660e01b8152600401610249929190610949565b6020604051808303816000875af1158015610268573d6000803e3d6000fd5b505050506040513d601f19601f8201168201806040525081019061028c91906108bd565b505050565b60008054906101000a900473ffffffffffffffffffffffffffffffffffffffff1681565b60008290508073ffffffffffffffffffffffffffffffffffffffff1663a9059cbb60008054906101000a900473ffffffffffffffffffffffffffffffffffffffff16846040518363ffffffff1660e01b8152600401610315929190610972565b6020604051808303816000875af1158015610334573d6000803e3d6000fd5b505050506040513d601f19601f8201168201806040525081019061035891906108bd565b50505050565b60008790508073ffffffffffffffffffffffffffffffffffffffff1663d505accf883089898989896040518863ffffffff1660e01b81526004016103a897969594939291906109b9565b600060405180830381600087803b1580156103c257600080fd5b505af11580156103d6573d6000803e3d6000fd5b505050508073ffffffffffffffffffffffffffffffffffffffff166323b872dd8830896040518463ffffffff1660e01b81526004016104179392919061084e565b6020604051808303816000875af1158015610436573d6000803e3d6000fd5b505050506040513d601f19601f8201168201806040525081019061045a91906108bd565b508073ffffffffffffffffffffffffffffffffffffffff1663a9059cbb60008054906101000a900473ffffffffffffffffffffffffffffffffffffffff16886040518363ffffffff1660e01b81526004016104b6929190610972565b6020604051808303816000875af11580156104d5573d6000803e3d6000fd5b505050506040513d601f19601f820116820180604052508101906104f991906108bd565b505050505050505050565b60008790508073ffffffffffffffffffffffffffffffffffffffff1663d505accf883089898989896040518863ffffffff1660e01b815260040161054e97969594939291906109b9565b600060405180830381600087803b15801561056857600080fd5b505af115801561057c573d6000803e3d6000fd5b505050505050505050505050565b600080fd5b600073ffffffffffffffffffffffffffffffffffffffff82169050919050565b60006105ba8261058f565b9050919050565b6105ca816105af565b81146105d557600080fd5b50565b6000813590506105e7816105c1565b92915050565b6000819050919050565b610600816105ed565b811461060b57600080fd5b50565b60008135905061061d816105f7565b92915050565b60008060006060848603121561063c5761063b61058a565b5b600061064a868287016105d8565b935050602061065b868287016105d8565b925050604061066c8682870161060e565b9150509250925092565b60006020828403121561068c5761068b61058a565b5b600061069a848285016105d8565b91505092915050565b60006106ae8261058f565b9050919050565b6106be816106a3565b82525050565b60006020820190506106d960008301846106b5565b92915050565b600080604083850312156106f6576106f561058a565b5b6000610704858286016105d8565b92505060206107158582860161060e565b9150509250929050565b600060ff82169050919050565b6107358161071f565b811461074057600080fd5b50565b6000813590506107528161072c565b92915050565b6000819050919050565b61076b81610758565b811461077657600080fd5b50565b60008135905061078881610762565b92915050565b600080600080600080600060e0888a0312156107ad576107ac61058a565b5b60006107bb8a828b016105d8565b97505060206107cc8a828b016105d8565b96505060406107dd8a828b0161060e565b95505060606107ee8a828b0161060e565b94505060806107ff8a828b01610743565b93505060a06108108a828b01610779565b92505060c06108218a828b01610779565b91505092959891949750929550565b610839816105af565b82525050565b610848816105ed565b82525050565b60006060820190506108636000830186610830565b6108706020830185610830565b61087d604083018461083f565b949350505050565b60008115159050919050565b61089a81610885565b81146108a557600080fd5b50565b6000815190506108b781610891565b92915050565b6000602082840312156108d3576108d261058a565b5b60006108e1848285016108a8565b91505092915050565b6000819050919050565b600061090f61090a6109058461058f565b6108ea565b61058f565b9050919050565b6000610921826108f4565b9050919050565b600061093382610916565b9050919050565b61094381610928565b82525050565b600060408201905061095e6000830185610830565b61096b602083018461093a565b9392505050565b6000604082019050610987600083018561093a565b610994602083018461083f565b9392505050565b6109a48161071f565b82525050565b6109b381610758565b82525050565b600060e0820190506109ce600083018a610830565b6109db6020830189610830565b6109e8604083018861083f565b6109f5606083018761083f565b610a02608083018661099b565b610a0f60a08301856109aa565b610a1c60c08301846109aa565b9897505050505050505056fea26469706673582212206d8133105cf213a8ee09393ed3a618028e927949b0f5eec874f1af2df895851a64736f6c63430008140033",
  "linkReferences": {},
  "deployedLinkReferences": {}
}