{
  "_format": "hh-sol-artifact-1",
  "contractName": "UhtNft",
  "sourceName": "contracts/UhtNft.sol",
  "abi": [
    {
      "inputs": [],
      "stateMutability": "nonpayable",
      "type": "constructor"
    },
    {
      "inputs": [
        {
          "internalType": "address",
          "name": "sender",
          "type": "address"
        },
        {
          "internalType": "uint256",
          "name": "tokenId",
          "type": "uint256"
        },
        {
          "internalType": "address",
          "name": "owner",
          "type": "address"
        }
      ],
      "name": "ERC721IncorrectOwner",
      "type": "error"
    },
    {
      "inputs": [
        {
          "internalType": "address",
          "name": "operator",
          "type": "address"
        },
        {
          "internalType": "uint256",
          "name": "tokenId",
          "type": "uint256"
        }
      ],
      "name": "ERC721InsufficientApproval",
      "type": "error"
    },
    {
      "inputs": [
        {
          "internalType": "address",
          "name": "approver",
          "type": "address"
        }
      ],
      "name": "ERC721InvalidApprover",
      "type": "error"
    },
    {
      "inputs": [
        {
          "internalType": "address",
          "name": "operator",
          "type": "address"
        }
      ],
      "name": "ERC721InvalidOperator",
      "type": "error"
    },
    {
      "inputs": [
        {
          "internalType": "address",
          "name": "owner",
          "type": "address"
        }
      ],
      "name": "ERC721InvalidOwner",
      "type": "error"
    },
    {
      "inputs": [
        {
          "internalType": "address",
          "name": "receiver",
          "type": "address"
        }
      ],
      "name": "ERC721InvalidReceiver",
      "type": "error"
    },
    {
      "inputs": [
        {
          "internalType": "address",
          "name": "sender",
          "type": "address"
        }
      ],
      "name": "ERC721InvalidSender",
      "type": "error"
    },
    {
      "inputs": [
        {
          "internalType": "uint256",
          "name": "tokenId",
          "type": "uint256"
        }
      ],
      "name": "ERC721NonexistentToken",
      "type": "error"
    },
    {
      "anonymous": false,
      "inputs": [
        {
          "indexed": true,
          "internalType": "address",
          "name": "owner",
          "type": "address"
        },
        {
          "indexed": true,
          "internalType": "address",
          "name": "approved",
          "type": "address"
        },
        {
          "indexed": true,
          "internalType": "uint256",
          "name": "tokenId",
          "type": "uint256"
        }
      ],
      "name": "Approval",
      "type": "event"
    },
    {
      "anonymous": false,
      "inputs": [
        {
          "indexed": true,
          "internalType": "address",
          "name": "owner",
          "type": "address"
        },
        {
          "indexed": true,
          "internalType": "address",
          "name": "operator",
          "type": "address"
        },
        {
          "indexed": false,
          "internalType": "bool",
          "name": "approved",
          "type": "bool"
        }
      ],
      "name": "ApprovalForAll",
      "type": "event"
    },
    {
      "anonymous": false,
      "inputs": [
        {
          "indexed": false,
          "internalType": "uint256",
          "name": "_fromTokenId",
          "type": "uint256"
        },
        {
          "indexed": false,
          "internalType": "uint256",
          "name": "_toTokenId",
          "type": "uint256"
        }
      ],
      "name": "BatchMetadataUpdate",
      "type": "event"
    },
    {
      "anonymous": false,
      "inputs": [
        {
          "indexed": false,
          "internalType": "uint256",
          "name": "_tokenId",
          "type": "uint256"
        }
      ],
      "name": "MetadataUpdate",
      "type": "event"
    },
    {
      "anonymous": false,
      "inputs": [
        {
          "indexed": false,
          "internalType": "address",
          "name": "purchaser",
          "type": "address"
        },
        {
          "indexed": false,
          "internalType": "uint256",
          "name": "tokenId",
          "type": "uint256"
        },
        {
          "indexed": false,
          "internalType": "uint256",
          "name": "gas",
          "type": "uint256"
        },
        {
          "indexed": false,
          "internalType": "string",
          "name": "ndtname",
          "type": "string"
        },
        {
          "indexed": false,
          "internalType": "uint256",
          "name": "timestamp",
          "type": "uint256"
        }
      ],
      "name": "NFTMinted",
      "type": "event"
    },
    {
      "anonymous": false,
      "inputs": [
        {
          "indexed": true,
          "internalType": "address",
          "name": "from",
          "type": "address"
        },
        {
          "indexed": true,
          "internalType": "address",
          "name": "to",
          "type": "address"
        },
        {
          "indexed": true,
          "internalType": "uint256",
          "name": "tokenId",
          "type": "uint256"
        }
      ],
      "name": "Transfer",
      "type": "event"
    },
    {
      "inputs": [],
      "name": "amountInETHReceived",
      "outputs": [
        {
          "internalType": "uint256",
          "name": "",
          "type": "uint256"
        }
      ],
      "stateMutability": "view",
      "type": "function"
    },
    {
      "inputs": [
        {
          "internalType": "address",
          "name": "to",
          "type": "address"
        },
        {
          "internalType": "uint256",
          "name": "tokenId",
          "type": "uint256"
        }
      ],
      "name": "approve",
      "outputs": [],
      "stateMutability": "nonpayable",
      "type": "function"
    },
    {
      "inputs": [
        {
          "internalType": "address",
          "name": "owner",
          "type": "address"
        }
      ],
      "name": "balanceOf",
      "outputs": [
        {
          "internalType": "uint256",
          "name": "",
          "type": "uint256"
        }
      ],
      "stateMutability": "view",
      "type": "function"
    },
    {
      "inputs": [],
      "name": "getAllTransactions",
      "outputs": [
        {
          "components": [
            {
              "internalType": "address",
              "name": "purchaser",
              "type": "address"
            },
            {
              "internalType": "uint256",
              "name": "tokenId",
              "type": "uint256"
            },
            {
              "internalType": "uint256",
              "name": "gas",
              "type": "uint256"
            },
            {
              "internalType": "string",
              "name": "nftname",
              "type": "string"
            },
            {
              "internalType": "uint256",
              "name": "timestamp",
              "type": "uint256"
            }
          ],
          "internalType": "struct UhtNft.NFTMintedStruct[]",
          "name": "",
          "type": "tuple[]"
        }
      ],
      "stateMutability": "view",
      "type": "function"
    },
    {
      "inputs": [
        {
          "internalType": "uint256",
          "name": "tokenId",
          "type": "uint256"
        }
      ],
      "name": "getApproved",
      "outputs": [
        {
          "internalType": "address",
          "name": "",
          "type": "address"
        }
      ],
      "stateMutability": "view",
      "type": "function"
    },
    {
      "inputs": [
        {
          "internalType": "address",
          "name": "beneficiary",
          "type": "address"
        }
      ],
      "name": "getTokens",
      "outputs": [
        {
          "internalType": "uint256[]",
          "name": "",
          "type": "uint256[]"
        }
      ],
      "stateMutability": "view",
      "type": "function"
    },
    {
      "inputs": [
        {
          "internalType": "address",
          "name": "owner",
          "type": "address"
        },
        {
          "internalType": "address",
          "name": "operator",
          "type": "address"
        }
      ],
      "name": "isApprovedForAll",
      "outputs": [
        {
          "internalType": "bool",
          "name": "",
          "type": "bool"
        }
      ],
      "stateMutability": "view",
      "type": "function"
    },
    {
      "inputs": [],
      "name": "name",
      "outputs": [
        {
          "internalType": "string",
          "name": "",
          "type": "string"
        }
      ],
      "stateMutability": "view",
      "type": "function"
    },
    {
      "inputs": [],
      "name": "owner",
      "outputs": [
        {
          "internalType": "address payable",
          "name": "",
          "type": "address"
        }
      ],
      "stateMutability": "view",
      "type": "function"
    },
    {
      "inputs": [
        {
          "internalType": "uint256",
          "name": "tokenId",
          "type": "uint256"
        }
      ],
      "name": "ownerOf",
      "outputs": [
        {
          "internalType": "address",
          "name": "",
          "type": "address"
        }
      ],
      "stateMutability": "view",
      "type": "function"
    },
    {
      "inputs": [
        {
          "internalType": "address",
          "name": "beneficiary",
          "type": "address"
        },
        {
          "internalType": "string",
          "name": "uri",
          "type": "string"
        },
        {
          "internalType": "string",
          "name": "nftname",
          "type": "string"
        }
      ],
      "name": "safeMint",
      "outputs": [],
      "stateMutability": "payable",
      "type": "function"
    },
    {
      "inputs": [
        {
          "internalType": "address",
          "name": "beneficiary",
          "type": "address"
        },
        {
          "internalType": "string",
          "name": "uri",
          "type": "string"
        },
        {
          "internalType": "string",
          "name": "nftname",
          "type": "string"
        },
        {
          "internalType": "uint256",
          "name": "tokenId",
          "type": "uint256"
        }
      ],
      "name": "safeMintTokenID",
      "outputs": [],
      "stateMutability": "payable",
      "type": "function"
    },
    {
      "inputs": [
        {
          "internalType": "address",
          "name": "from",
          "type": "address"
        },
        {
          "internalType": "address",
          "name": "to",
          "type": "address"
        },
        {
          "internalType": "uint256",
          "name": "tokenId",
          "type": "uint256"
        }
      ],
      "name": "safeTransferFrom",
      "outputs": [],
      "stateMutability": "nonpayable",
      "type": "function"
    },
    {
      "inputs": [
        {
          "internalType": "address",
          "name": "from",
          "type": "address"
        },
        {
          "internalType": "address",
          "name": "to",
          "type": "address"
        },
        {
          "internalType": "uint256",
          "name": "tokenId",
          "type": "uint256"
        },
        {
          "internalType": "bytes",
          "name": "data",
          "type": "bytes"
        }
      ],
      "name": "safeTransferFrom",
      "outputs": [],
      "stateMutability": "nonpayable",
      "type": "function"
    },
    {
      "inputs": [
        {
          "internalType": "address",
          "name": "operator",
          "type": "address"
        },
        {
          "internalType": "bool",
          "name": "approved",
          "type": "bool"
        }
      ],
      "name": "setApprovalForAll",
      "outputs": [],
      "stateMutability": "nonpayable",
      "type": "function"
    },
    {
      "inputs": [
        {
          "internalType": "bytes4",
          "name": "interfaceId",
          "type": "bytes4"
        }
      ],
      "name": "supportsInterface",
      "outputs": [
        {
          "internalType": "bool",
          "name": "",
          "type": "bool"
        }
      ],
      "stateMutability": "view",
      "type": "function"
    },
    {
      "inputs": [],
      "name": "symbol",
      "outputs": [
        {
          "internalType": "string",
          "name": "",
          "type": "string"
        }
      ],
      "stateMutability": "view",
      "type": "function"
    },
    {
      "inputs": [
        {
          "internalType": "uint256",
          "name": "tokenId",
          "type": "uint256"
        }
      ],
      "name": "tokenURI",
      "outputs": [
        {
          "internalType": "string",
          "name": "",
          "type": "string"
        }
      ],
      "stateMutability": "view",
      "type": "function"
    },
    {
      "inputs": [
        {
          "internalType": "address",
          "name": "",
          "type": "address"
        },
        {
          "internalType": "uint256",
          "name": "",
          "type": "uint256"
        }
      ],
      "name": "tokens",
      "outputs": [
        {
          "internalType": "uint256",
          "name": "",
          "type": "uint256"
        }
      ],
      "stateMutability": "view",
      "type": "function"
    },
    {
      "inputs": [
        {
          "internalType": "address",
          "name": "from",
          "type": "address"
        },
        {
          "internalType": "address",
          "name": "to",
          "type": "address"
        },
        {
          "internalType": "uint256",
          "name": "tokenId",
          "type": "uint256"
        }
      ],
      "name": "transferFrom",
      "outputs": [],
      "stateMutability": "nonpayable",
      "type": "function"
    },
    {
      "inputs": [],
      "name": "withdraw",
      "outputs": [],
      "stateMutability": "nonpayable",
      "type": "function"
    }
  ],
  "bytecode": "0x60806040523480156200001157600080fd5b506040518060400160405280601681526020017f556e6976657273616c204865616c746820546f6b656e000000000000000000008152506040518060400160405280600381526020017f554854000000000000000000000000000000000000000000000000000000000081525081600090816200008f919062000365565b508060019081620000a1919062000365565b50505033600860006101000a81548173ffffffffffffffffffffffffffffffffffffffff021916908373ffffffffffffffffffffffffffffffffffffffff1602179055506200044c565b600081519050919050565b7f4e487b7100000000000000000000000000000000000000000000000000000000600052604160045260246000fd5b7f4e487b7100000000000000000000000000000000000000000000000000000000600052602260045260246000fd5b600060028204905060018216806200016d57607f821691505b60208210810362000183576200018262000125565b5b50919050565b60008190508160005260206000209050919050565b60006020601f8301049050919050565b600082821b905092915050565b600060088302620001ed7fffffffffffffffffffffffffffffffffffffffffffffffffffffffffffffffff82620001ae565b620001f98683620001ae565b95508019841693508086168417925050509392505050565b6000819050919050565b6000819050919050565b600062000246620002406200023a8462000211565b6200021b565b62000211565b9050919050565b6000819050919050565b620002628362000225565b6200027a62000271826200024d565b848454620001bb565b825550505050565b600090565b6200029162000282565b6200029e81848462000257565b505050565b5b81811015620002c657620002ba60008262000287565b600181019050620002a4565b5050565b601f8211156200031557620002df8162000189565b620002ea846200019e565b81016020851015620002fa578190505b6200031262000309856200019e565b830182620002a3565b50505b505050565b600082821c905092915050565b60006200033a600019846008026200031a565b1980831691505092915050565b600062000355838362000327565b9150826002028217905092915050565b6200037082620000eb565b67ffffffffffffffff8111156200038c576200038b620000f6565b5b62000398825462000154565b620003a5828285620002ca565b600060209050601f831160018114620003dd5760008415620003c8578287015190505b620003d4858262000347565b86555062000444565b601f198416620003ed8662000189565b60005b828110156200041757848901518255600182019150602085019450602081019050620003f0565b8683101562000437578489015162000433601f89168262000327565b8355505b6001600288020188555050505b505050505050565b6132b4806200045c6000396000f3fe60806040526004361061012a5760003560e01c8063476f6fdd116100ab57806395d89b411161006f57806395d89b41146103f7578063a22cb46514610422578063b88d4fde1461044b578063c87b56dd14610474578063e985e9c5146104b1578063eca81d42146104ee5761012a565b8063476f6fdd146102f95780634abf825d146103155780636352211e1461035257806370a082311461038f5780638da5cb5b146103cc5761012a565b806323b872dd116100f257806323b872dd1461022857806327506f53146102515780633ccfd60b1461027c57806342842e0e14610293578063450efe21146102bc5761012a565b806301ffc9a71461012f57806306fdde031461016c578063081812fc14610197578063095ea7b3146101d4578063186fd74d146101fd575b600080fd5b34801561013b57600080fd5b50610156600480360381019061015191906121d1565b61050a565b6040516101639190612219565b60405180910390f35b34801561017857600080fd5b5061018161051c565b60405161018e91906122c4565b60405180910390f35b3480156101a357600080fd5b506101be60048036038101906101b9919061231c565b6105ae565b6040516101cb919061238a565b60405180910390f35b3480156101e057600080fd5b506101fb60048036038101906101f691906123d1565b6105ca565b005b34801561020957600080fd5b506102126105e0565b60405161021f9190612420565b60405180910390f35b34801561023457600080fd5b5061024f600480360381019061024a919061243b565b6105e8565b005b34801561025d57600080fd5b506102666106ea565b604051610273919061262e565b60405180910390f35b34801561028857600080fd5b5061029161084f565b005b34801561029f57600080fd5b506102ba60048036038101906102b5919061243b565b61098d565b005b3480156102c857600080fd5b506102e360048036038101906102de9190612650565b6109ad565b6040516102f0919061272c565b60405180910390f35b610313600480360381019061030e9190612883565b610a44565b005b34801561032157600080fd5b5061033c600480360381019061033791906123d1565b610bf7565b6040516103499190612420565b60405180910390f35b34801561035e57600080fd5b506103796004803603810190610374919061231c565b610c28565b604051610386919061238a565b60405180910390f35b34801561039b57600080fd5b506103b660048036038101906103b19190612650565b610c3a565b6040516103c39190612420565b60405180910390f35b3480156103d857600080fd5b506103e1610cf4565b6040516103ee9190612943565b60405180910390f35b34801561040357600080fd5b5061040c610d1a565b60405161041991906122c4565b60405180910390f35b34801561042e57600080fd5b506104496004803603810190610444919061298a565b610dac565b005b34801561045757600080fd5b50610472600480360381019061046d9190612a6b565b610dc2565b005b34801561048057600080fd5b5061049b6004803603810190610496919061231c565b610de7565b6040516104a891906122c4565b60405180910390f35b3480156104bd57600080fd5b506104d860048036038101906104d39190612aee565b610df9565b6040516104e59190612219565b60405180910390f35b61050860048036038101906105039190612b2e565b610e8d565b005b60006105158261105b565b9050919050565b60606000805461052b90612be8565b80601f016020809104026020016040519081016040528092919081815260200182805461055790612be8565b80156105a45780601f10610579576101008083540402835291602001916105a4565b820191906000526020600020905b81548152906001019060200180831161058757829003601f168201915b5050505050905090565b60006105b9826110bc565b506105c382611144565b9050919050565b6105dc82826105d7611181565b611189565b5050565b600047905090565b600073ffffffffffffffffffffffffffffffffffffffff168273ffffffffffffffffffffffffffffffffffffffff160361065a5760006040517f64a0ae92000000000000000000000000000000000000000000000000000000008152600401610651919061238a565b60405180910390fd5b600061066e8383610669611181565b61119b565b90508373ffffffffffffffffffffffffffffffffffffffff168173ffffffffffffffffffffffffffffffffffffffff16146106e4578382826040517f64283d7b0000000000000000000000000000000000000000000000000000000081526004016106db93929190612c19565b60405180910390fd5b50505050565b60606009805480602002602001604051908101604052809291908181526020016000905b8282101561084657838290600052602060002090600502016040518060a00160405290816000820160009054906101000a900473ffffffffffffffffffffffffffffffffffffffff1673ffffffffffffffffffffffffffffffffffffffff1673ffffffffffffffffffffffffffffffffffffffff16815260200160018201548152602001600282015481526020016003820180546107ab90612be8565b80601f01602080910402602001604051908101604052809291908181526020018280546107d790612be8565b80156108245780601f106107f957610100808354040283529160200191610824565b820191906000526020600020905b81548152906001019060200180831161080757829003601f168201915b505050505081526020016004820154815250508152602001906001019061070e565b50505050905090565b600860009054906101000a900473ffffffffffffffffffffffffffffffffffffffff1673ffffffffffffffffffffffffffffffffffffffff163373ffffffffffffffffffffffffffffffffffffffff16146108df576040517f08c379a00000000000000000000000000000000000000000000000000000000081526004016108d690612c9c565b60405180910390fd5b60004711610922576040517f08c379a000000000000000000000000000000000000000000000000000000000815260040161091990612d08565b60405180910390fd5b600860009054906101000a900473ffffffffffffffffffffffffffffffffffffffff1673ffffffffffffffffffffffffffffffffffffffff166108fc479081150290604051600060405180830381858888f1935050505015801561098a573d6000803e3d6000fd5b50565b6109a883838360405180602001604052806000815250610dc2565b505050565b6060600a60008373ffffffffffffffffffffffffffffffffffffffff1673ffffffffffffffffffffffffffffffffffffffff168152602001908152602001600020805480602002602001604051908101604052809291908181526020018280548015610a3857602002820191906000526020600020905b815481526020019060010190808311610a24575b50505050509050919050565b6000349050610a52856113b5565b610a5c8583611427565b610a668285611445565b60096040518060a001604052808773ffffffffffffffffffffffffffffffffffffffff16815260200184815260200183815260200185815260200142815250908060018154018082558091505060019003906000526020600020906005020160009091909190915060008201518160000160006101000a81548173ffffffffffffffffffffffffffffffffffffffff021916908373ffffffffffffffffffffffffffffffffffffffff16021790555060208201518160010155604082015181600201556060820151816003019081610b3e9190612ed4565b50608082015181600401555050600a60008673ffffffffffffffffffffffffffffffffffffffff1673ffffffffffffffffffffffffffffffffffffffff1681526020019081526020016000208290806001815401808255809150506001900390600052602060002001600090919091909150557f9a939bdff0adc316610b3f26ac11906e9c7f02843a89e24df12d465dea6525ae8583838642604051610be8959493929190612fa6565b60405180910390a15050505050565b600a6020528160005260406000208181548110610c1357600080fd5b90600052602060002001600091509150505481565b6000610c33826110bc565b9050919050565b60008073ffffffffffffffffffffffffffffffffffffffff168273ffffffffffffffffffffffffffffffffffffffff1603610cad5760006040517f89c62b64000000000000000000000000000000000000000000000000000000008152600401610ca4919061238a565b60405180910390fd5b600360008373ffffffffffffffffffffffffffffffffffffffff1673ffffffffffffffffffffffffffffffffffffffff168152602001908152602001600020549050919050565b600860009054906101000a900473ffffffffffffffffffffffffffffffffffffffff1681565b606060018054610d2990612be8565b80601f0160208091040260200160405190810160405280929190818152602001828054610d5590612be8565b8015610da25780601f10610d7757610100808354040283529160200191610da2565b820191906000526020600020905b815481529060010190602001808311610d8557829003601f168201915b5050505050905090565b610dbe610db7611181565b83836114a1565b5050565b610dcd8484846105e8565b610de1610dd8611181565b85858585611610565b50505050565b6060610df2826117c1565b9050919050565b6000600560008473ffffffffffffffffffffffffffffffffffffffff1673ffffffffffffffffffffffffffffffffffffffff16815260200190815260200160002060008373ffffffffffffffffffffffffffffffffffffffff1673ffffffffffffffffffffffffffffffffffffffff16815260200190815260200160002060009054906101000a900460ff16905092915050565b6000349050610e9b846113b5565b600060076000815480929190610eb09061302f565b919050559050610ec08582611427565b610eca8185611445565b60096040518060a001604052808773ffffffffffffffffffffffffffffffffffffffff16815260200183815260200184815260200185815260200142815250908060018154018082558091505060019003906000526020600020906005020160009091909190915060008201518160000160006101000a81548173ffffffffffffffffffffffffffffffffffffffff021916908373ffffffffffffffffffffffffffffffffffffffff16021790555060208201518160010155604082015181600201556060820151816003019081610fa29190612ed4565b50608082015181600401555050600a60008673ffffffffffffffffffffffffffffffffffffffff1673ffffffffffffffffffffffffffffffffffffffff1681526020019081526020016000208190806001815401808255809150506001900390600052602060002001600090919091909150557f9a939bdff0adc316610b3f26ac11906e9c7f02843a89e24df12d465dea6525ae858284864260405161104c959493929190612fa6565b60405180910390a15050505050565b6000634906490660e01b7bffffffffffffffffffffffffffffffffffffffffffffffffffffffff1916827bffffffffffffffffffffffffffffffffffffffffffffffffffffffff191614806110b557506110b4826118d4565b5b9050919050565b6000806110c8836119b6565b9050600073ffffffffffffffffffffffffffffffffffffffff168173ffffffffffffffffffffffffffffffffffffffff160361113b57826040517f7e2732890000000000000000000000000000000000000000000000000000000081526004016111329190612420565b60405180910390fd5b80915050919050565b60006004600083815260200190815260200160002060009054906101000a900473ffffffffffffffffffffffffffffffffffffffff169050919050565b600033905090565b61119683838360016119f3565b505050565b6000806111a7846119b6565b9050600073ffffffffffffffffffffffffffffffffffffffff168373ffffffffffffffffffffffffffffffffffffffff16146111e9576111e8818486611bb8565b5b600073ffffffffffffffffffffffffffffffffffffffff168173ffffffffffffffffffffffffffffffffffffffff161461127a5761122b6000856000806119f3565b6001600360008373ffffffffffffffffffffffffffffffffffffffff1673ffffffffffffffffffffffffffffffffffffffff168152602001908152602001600020600082825403925050819055505b600073ffffffffffffffffffffffffffffffffffffffff168573ffffffffffffffffffffffffffffffffffffffff16146112fd576001600360008773ffffffffffffffffffffffffffffffffffffffff1673ffffffffffffffffffffffffffffffffffffffff168152602001908152602001600020600082825401925050819055505b846002600086815260200190815260200160002060006101000a81548173ffffffffffffffffffffffffffffffffffffffff021916908373ffffffffffffffffffffffffffffffffffffffff160217905550838573ffffffffffffffffffffffffffffffffffffffff168273ffffffffffffffffffffffffffffffffffffffff167fddf252ad1be2c89b69c2b068fc378daa952ba7f163c4a11628f55a4df523b3ef60405160405180910390a4809150509392505050565b600073ffffffffffffffffffffffffffffffffffffffff168173ffffffffffffffffffffffffffffffffffffffff1603611424576040517f08c379a000000000000000000000000000000000000000000000000000000000815260040161141b906130c3565b60405180910390fd5b50565b611441828260405180602001604052806000815250611c7c565b5050565b806006600084815260200190815260200160002090816114659190612ed4565b507ff8e1a15aba9398e019f0b49df1a4fde98ee17ae345cb5f6b5e2c27f5033e8ce7826040516114959190612420565b60405180910390a15050565b600073ffffffffffffffffffffffffffffffffffffffff168273ffffffffffffffffffffffffffffffffffffffff160361151257816040517f5b08ba18000000000000000000000000000000000000000000000000000000008152600401611509919061238a565b60405180910390fd5b80600560008573ffffffffffffffffffffffffffffffffffffffff1673ffffffffffffffffffffffffffffffffffffffff16815260200190815260200160002060008473ffffffffffffffffffffffffffffffffffffffff1673ffffffffffffffffffffffffffffffffffffffff16815260200190815260200160002060006101000a81548160ff0219169083151502179055508173ffffffffffffffffffffffffffffffffffffffff168373ffffffffffffffffffffffffffffffffffffffff167f17307eab39ab6107e8899845ad3d59bd9653f200f220920489ca2b5937696c31836040516116039190612219565b60405180910390a3505050565b60008373ffffffffffffffffffffffffffffffffffffffff163b11156117ba578273ffffffffffffffffffffffffffffffffffffffff1663150b7a02868685856040518563ffffffff1660e01b815260040161166f9493929190613138565b6020604051808303816000875af19250505080156116ab57506040513d601f19601f820116820180604052508101906116a89190613199565b60015b61172f573d80600081146116db576040519150601f19603f3d011682016040523d82523d6000602084013e6116e0565b606091505b50600081510361172757836040517f64a0ae9200000000000000000000000000000000000000000000000000000000815260040161171e919061238a565b60405180910390fd5b805160208201fd5b63150b7a0260e01b7bffffffffffffffffffffffffffffffffffffffffffffffffffffffff1916817bffffffffffffffffffffffffffffffffffffffffffffffffffffffff1916146117b857836040517f64a0ae920000000000000000000000000000000000000000000000000000000081526004016117af919061238a565b60405180910390fd5b505b5050505050565b60606117cc826110bc565b5060006006600084815260200190815260200160002080546117ed90612be8565b80601f016020809104026020016040519081016040528092919081815260200182805461181990612be8565b80156118665780601f1061183b57610100808354040283529160200191611866565b820191906000526020600020905b81548152906001019060200180831161184957829003601f168201915b505050505090506000611877611ca0565b9050600081510361188c5781925050506118cf565b6000825111156118c15780826040516020016118a9929190613202565b604051602081830303815290604052925050506118cf565b6118ca84611cb7565b925050505b919050565b60007f80ac58cd000000000000000000000000000000000000000000000000000000007bffffffffffffffffffffffffffffffffffffffffffffffffffffffff1916827bffffffffffffffffffffffffffffffffffffffffffffffffffffffff1916148061199f57507f5b5e139f000000000000000000000000000000000000000000000000000000007bffffffffffffffffffffffffffffffffffffffffffffffffffffffff1916827bffffffffffffffffffffffffffffffffffffffffffffffffffffffff1916145b806119af57506119ae82611d20565b5b9050919050565b60006002600083815260200190815260200160002060009054906101000a900473ffffffffffffffffffffffffffffffffffffffff169050919050565b8080611a2c5750600073ffffffffffffffffffffffffffffffffffffffff168273ffffffffffffffffffffffffffffffffffffffff1614155b15611b60576000611a3c846110bc565b9050600073ffffffffffffffffffffffffffffffffffffffff168373ffffffffffffffffffffffffffffffffffffffff1614158015611aa757508273ffffffffffffffffffffffffffffffffffffffff168173ffffffffffffffffffffffffffffffffffffffff1614155b8015611aba5750611ab88184610df9565b155b15611afc57826040517fa9fbf51f000000000000000000000000000000000000000000000000000000008152600401611af3919061238a565b60405180910390fd5b8115611b5e57838573ffffffffffffffffffffffffffffffffffffffff168273ffffffffffffffffffffffffffffffffffffffff167f8c5be1e5ebec7d5bd14f71427d1e84f3dd0314c0f7b2291e5b200ac8c7c3b92560405160405180910390a45b505b836004600085815260200190815260200160002060006101000a81548173ffffffffffffffffffffffffffffffffffffffff021916908373ffffffffffffffffffffffffffffffffffffffff16021790555050505050565b611bc3838383611d8a565b611c7757600073ffffffffffffffffffffffffffffffffffffffff168373ffffffffffffffffffffffffffffffffffffffff1603611c3857806040517f7e273289000000000000000000000000000000000000000000000000000000008152600401611c2f9190612420565b60405180910390fd5b81816040517f177e802f000000000000000000000000000000000000000000000000000000008152600401611c6e929190613226565b60405180910390fd5b505050565b611c868383611e4b565b611c9b611c91611181565b6000858585611610565b505050565b606060405180602001604052806000815250905090565b6060611cc2826110bc565b506000611ccd611ca0565b90506000815111611ced5760405180602001604052806000815250611d18565b80611cf784611f44565b604051602001611d08929190613202565b6040516020818303038152906040525b915050919050565b60007f01ffc9a7000000000000000000000000000000000000000000000000000000007bffffffffffffffffffffffffffffffffffffffffffffffffffffffff1916827bffffffffffffffffffffffffffffffffffffffffffffffffffffffff1916149050919050565b60008073ffffffffffffffffffffffffffffffffffffffff168373ffffffffffffffffffffffffffffffffffffffff1614158015611e4257508273ffffffffffffffffffffffffffffffffffffffff168473ffffffffffffffffffffffffffffffffffffffff161480611e035750611e028484610df9565b5b80611e4157508273ffffffffffffffffffffffffffffffffffffffff16611e2983611144565b73ffffffffffffffffffffffffffffffffffffffff16145b5b90509392505050565b600073ffffffffffffffffffffffffffffffffffffffff168273ffffffffffffffffffffffffffffffffffffffff1603611ebd5760006040517f64a0ae92000000000000000000000000000000000000000000000000000000008152600401611eb4919061238a565b60405180910390fd5b6000611ecb8383600061119b565b9050600073ffffffffffffffffffffffffffffffffffffffff168173ffffffffffffffffffffffffffffffffffffffff1614611f3f5760006040517f73c6ac6e000000000000000000000000000000000000000000000000000000008152600401611f36919061238a565b60405180910390fd5b505050565b606060006001611f5384612012565b01905060008167ffffffffffffffff811115611f7257611f71612758565b5b6040519080825280601f01601f191660200182016040528015611fa45781602001600182028036833780820191505090505b509050600082602083010190505b600115612007578080600190039150507f3031323334353637383961626364656600000000000000000000000000000000600a86061a8153600a8581611ffb57611ffa61324f565b5b04945060008503611fb2575b819350505050919050565b600080600090507a184f03e93ff9f4daa797ed6e38ed64bf6a1f0100000000000000008310612070577a184f03e93ff9f4daa797ed6e38ed64bf6a1f01000000000000000083816120665761206561324f565b5b0492506040810190505b6d04ee2d6d415b85acef810000000083106120ad576d04ee2d6d415b85acef810000000083816120a3576120a261324f565b5b0492506020810190505b662386f26fc1000083106120dc57662386f26fc1000083816120d2576120d161324f565b5b0492506010810190505b6305f5e1008310612105576305f5e10083816120fb576120fa61324f565b5b0492506008810190505b612710831061212a5761271083816121205761211f61324f565b5b0492506004810190505b6064831061214d57606483816121435761214261324f565b5b0492506002810190505b600a831061215c576001810190505b80915050919050565b6000604051905090565b600080fd5b600080fd5b60007fffffffff0000000000000000000000000000000000000000000000000000000082169050919050565b6121ae81612179565b81146121b957600080fd5b50565b6000813590506121cb816121a5565b92915050565b6000602082840312156121e7576121e661216f565b5b60006121f5848285016121bc565b91505092915050565b60008115159050919050565b612213816121fe565b82525050565b600060208201905061222e600083018461220a565b92915050565b600081519050919050565b600082825260208201905092915050565b60005b8381101561226e578082015181840152602081019050612253565b60008484015250505050565b6000601f19601f8301169050919050565b600061229682612234565b6122a0818561223f565b93506122b0818560208601612250565b6122b98161227a565b840191505092915050565b600060208201905081810360008301526122de818461228b565b905092915050565b6000819050919050565b6122f9816122e6565b811461230457600080fd5b50565b600081359050612316816122f0565b92915050565b6000602082840312156123325761233161216f565b5b600061234084828501612307565b91505092915050565b600073ffffffffffffffffffffffffffffffffffffffff82169050919050565b600061237482612349565b9050919050565b61238481612369565b82525050565b600060208201905061239f600083018461237b565b92915050565b6123ae81612369565b81146123b957600080fd5b50565b6000813590506123cb816123a5565b92915050565b600080604083850312156123e8576123e761216f565b5b60006123f6858286016123bc565b925050602061240785828601612307565b9150509250929050565b61241a816122e6565b82525050565b60006020820190506124356000830184612411565b92915050565b6000806000606084860312156124545761245361216f565b5b6000612462868287016123bc565b9350506020612473868287016123bc565b925050604061248486828701612307565b9150509250925092565b600081519050919050565b600082825260208201905092915050565b6000819050602082019050919050565b6124c381612369565b82525050565b6124d2816122e6565b82525050565b600082825260208201905092915050565b60006124f482612234565b6124fe81856124d8565b935061250e818560208601612250565b6125178161227a565b840191505092915050565b600060a08301600083015161253a60008601826124ba565b50602083015161254d60208601826124c9565b50604083015161256060408601826124c9565b506060830151848203606086015261257882826124e9565b915050608083015161258d60808601826124c9565b508091505092915050565b60006125a48383612522565b905092915050565b6000602082019050919050565b60006125c48261248e565b6125ce8185612499565b9350836020820285016125e0856124aa565b8060005b8581101561261c57848403895281516125fd8582612598565b9450612608836125ac565b925060208a019950506001810190506125e4565b50829750879550505050505092915050565b6000602082019050818103600083015261264881846125b9565b905092915050565b6000602082840312156126665761266561216f565b5b6000612674848285016123bc565b91505092915050565b600081519050919050565b600082825260208201905092915050565b6000819050602082019050919050565b60006126b583836124c9565b60208301905092915050565b6000602082019050919050565b60006126d98261267d565b6126e38185612688565b93506126ee83612699565b8060005b8381101561271f57815161270688826126a9565b9750612711836126c1565b9250506001810190506126f2565b5085935050505092915050565b6000602082019050818103600083015261274681846126ce565b905092915050565b600080fd5b600080fd5b7f4e487b7100000000000000000000000000000000000000000000000000000000600052604160045260246000fd5b6127908261227a565b810181811067ffffffffffffffff821117156127af576127ae612758565b5b80604052505050565b60006127c2612165565b90506127ce8282612787565b919050565b600067ffffffffffffffff8211156127ee576127ed612758565b5b6127f78261227a565b9050602081019050919050565b82818337600083830152505050565b6000612826612821846127d3565b6127b8565b90508281526020810184848401111561284257612841612753565b5b61284d848285612804565b509392505050565b600082601f83011261286a5761286961274e565b5b813561287a848260208601612813565b91505092915050565b6000806000806080858703121561289d5761289c61216f565b5b60006128ab878288016123bc565b945050602085013567ffffffffffffffff8111156128cc576128cb612174565b5b6128d887828801612855565b935050604085013567ffffffffffffffff8111156128f9576128f8612174565b5b61290587828801612855565b925050606061291687828801612307565b91505092959194509250565b600061292d82612349565b9050919050565b61293d81612922565b82525050565b60006020820190506129586000830184612934565b92915050565b612967816121fe565b811461297257600080fd5b50565b6000813590506129848161295e565b92915050565b600080604083850312156129a1576129a061216f565b5b60006129af858286016123bc565b92505060206129c085828601612975565b9150509250929050565b600067ffffffffffffffff8211156129e5576129e4612758565b5b6129ee8261227a565b9050602081019050919050565b6000612a0e612a09846129ca565b6127b8565b905082815260208101848484011115612a2a57612a29612753565b5b612a35848285612804565b509392505050565b600082601f830112612a5257612a5161274e565b5b8135612a628482602086016129fb565b91505092915050565b60008060008060808587031215612a8557612a8461216f565b5b6000612a93878288016123bc565b9450506020612aa4878288016123bc565b9350506040612ab587828801612307565b925050606085013567ffffffffffffffff811115612ad657612ad5612174565b5b612ae287828801612a3d565b91505092959194509250565b60008060408385031215612b0557612b0461216f565b5b6000612b13858286016123bc565b9250506020612b24858286016123bc565b9150509250929050565b600080600060608486031215612b4757612b4661216f565b5b6000612b55868287016123bc565b935050602084013567ffffffffffffffff811115612b7657612b75612174565b5b612b8286828701612855565b925050604084013567ffffffffffffffff811115612ba357612ba2612174565b5b612baf86828701612855565b9150509250925092565b7f4e487b7100000000000000000000000000000000000000000000000000000000600052602260045260246000fd5b60006002820490506001821680612c0057607f821691505b602082108103612c1357612c12612bb9565b5b50919050565b6000606082019050612c2e600083018661237b565b612c3b6020830185612411565b612c48604083018461237b565b949350505050565b7f6f6e6c795f6f776e65725f616363657373000000000000000000000000000000600082015250565b6000612c8660118361223f565b9150612c9182612c50565b602082019050919050565b60006020820190508181036000830152612cb581612c79565b9050919050565b7f7a65726f5f62616c616e63650000000000000000000000000000000000000000600082015250565b6000612cf2600c8361223f565b9150612cfd82612cbc565b602082019050919050565b60006020820190508181036000830152612d2181612ce5565b9050919050565b60008190508160005260206000209050919050565b60006020601f8301049050919050565b600082821b905092915050565b600060088302612d8a7fffffffffffffffffffffffffffffffffffffffffffffffffffffffffffffffff82612d4d565b612d948683612d4d565b95508019841693508086168417925050509392505050565b6000819050919050565b6000612dd1612dcc612dc7846122e6565b612dac565b6122e6565b9050919050565b6000819050919050565b612deb83612db6565b612dff612df782612dd8565b848454612d5a565b825550505050565b600090565b612e14612e07565b612e1f818484612de2565b505050565b5b81811015612e4357612e38600082612e0c565b600181019050612e25565b5050565b601f821115612e8857612e5981612d28565b612e6284612d3d565b81016020851015612e71578190505b612e85612e7d85612d3d565b830182612e24565b50505b505050565b600082821c905092915050565b6000612eab60001984600802612e8d565b1980831691505092915050565b6000612ec48383612e9a565b9150826002028217905092915050565b612edd82612234565b67ffffffffffffffff811115612ef657612ef5612758565b5b612f008254612be8565b612f0b828285612e47565b600060209050601f831160018114612f3e5760008415612f2c578287015190505b612f368582612eb8565b865550612f9e565b601f198416612f4c86612d28565b60005b82811015612f7457848901518255600182019150602085019450602081019050612f4f565b86831015612f915784890151612f8d601f891682612e9a565b8355505b6001600288020188555050505b505050505050565b600060a082019050612fbb600083018861237b565b612fc86020830187612411565b612fd56040830186612411565b8181036060830152612fe7818561228b565b9050612ff66080830184612411565b9695505050505050565b7f4e487b7100000000000000000000000000000000000000000000000000000000600052601160045260246000fd5b600061303a826122e6565b91507fffffffffffffffffffffffffffffffffffffffffffffffffffffffffffffffff820361306c5761306b613000565b5b600182019050919050565b7f496e76616c696420616464726573730000000000000000000000000000000000600082015250565b60006130ad600f8361223f565b91506130b882613077565b602082019050919050565b600060208201905081810360008301526130dc816130a0565b9050919050565b600081519050919050565b600082825260208201905092915050565b600061310a826130e3565b61311481856130ee565b9350613124818560208601612250565b61312d8161227a565b840191505092915050565b600060808201905061314d600083018761237b565b61315a602083018661237b565b6131676040830185612411565b818103606083015261317981846130ff565b905095945050505050565b600081519050613193816121a5565b92915050565b6000602082840312156131af576131ae61216f565b5b60006131bd84828501613184565b91505092915050565b600081905092915050565b60006131dc82612234565b6131e681856131c6565b93506131f6818560208601612250565b80840191505092915050565b600061320e82856131d1565b915061321a82846131d1565b91508190509392505050565b600060408201905061323b600083018561237b565b6132486020830184612411565b9392505050565b7f4e487b7100000000000000000000000000000000000000000000000000000000600052601260045260246000fdfea26469706673582212201feab8ad0567bc1dbce124ecf8fa297df365e0caf17e32a98be4ead4194b899764736f6c63430008140033",
  "linkReferences": {},
  "deployedLinkReferences": {}
}