{
  "_format": "hh-sol-artifact-1",
  "contractName": "UhtNFTPresale",
  "sourceName": "contracts/UhtNFTPresale.sol",
  "abi": [
    {
      "inputs": [
        {
          "internalType": "contract NFT",
          "name": "_nft",
          "type": "address"
        }
      ],
      "stateMutability": "nonpayable",
      "type": "constructor"
    },
    {
      "anonymous": false,
      "inputs": [
        {
          "indexed": false,
          "internalType": "address",
          "name": "purchaser",
          "type": "address"
        },
        {
          "indexed": false,
          "internalType": "uint256",
          "name": "tokenId",
          "type": "uint256"
        },
        {
          "indexed": false,
          "internalType": "uint256",
          "name": "gas",
          "type": "uint256"
        },
        {
          "indexed": false,
          "internalType": "string",
          "name": "ndtname",
          "type": "string"
        },
        {
          "indexed": false,
          "internalType": "uint256",
          "name": "timestamp",
          "type": "uint256"
        }
      ],
      "name": "NFTMinted",
      "type": "event"
    },
    {
      "inputs": [],
      "name": "amountInETHReceived",
      "outputs": [
        {
          "internalType": "uint256",
          "name": "",
          "type": "uint256"
        }
      ],
      "stateMutability": "view",
      "type": "function"
    },
    {
      "inputs": [],
      "name": "getAllTransactions",
      "outputs": [
        {
          "components": [
            {
              "internalType": "address",
              "name": "purchaser",
              "type": "address"
            },
            {
              "internalType": "uint256",
              "name": "tokenId",
              "type": "uint256"
            },
            {
              "internalType": "uint256",
              "name": "gas",
              "type": "uint256"
            },
            {
              "internalType": "string",
              "name": "nftname",
              "type": "string"
            },
            {
              "internalType": "uint256",
              "name": "timestamp",
              "type": "uint256"
            }
          ],
          "internalType": "struct UhtNFTPresale.NFTMintedStruct[]",
          "name": "",
          "type": "tuple[]"
        }
      ],
      "stateMutability": "view",
      "type": "function"
    },
    {
      "inputs": [
        {
          "internalType": "address",
          "name": "beneficiary",
          "type": "address"
        }
      ],
      "name": "getTokens",
      "outputs": [
        {
          "internalType": "uint256[]",
          "name": "",
          "type": "uint256[]"
        }
      ],
      "stateMutability": "view",
      "type": "function"
    },
    {
      "inputs": [],
      "name": "owner",
      "outputs": [
        {
          "internalType": "address payable",
          "name": "",
          "type": "address"
        }
      ],
      "stateMutability": "view",
      "type": "function"
    },
    {
      "inputs": [
        {
          "internalType": "string",
          "name": "uri",
          "type": "string"
        },
        {
          "internalType": "string",
          "name": "nftname",
          "type": "string"
        }
      ],
      "name": "safeMint",
      "outputs": [],
      "stateMutability": "payable",
      "type": "function"
    },
    {
      "inputs": [
        {
          "internalType": "string",
          "name": "uri",
          "type": "string"
        },
        {
          "internalType": "string",
          "name": "nftname",
          "type": "string"
        },
        {
          "internalType": "uint256",
          "name": "tokenId",
          "type": "uint256"
        }
      ],
      "name": "safeMintTokenID",
      "outputs": [],
      "stateMutability": "payable",
      "type": "function"
    },
    {
      "inputs": [],
      "name": "withdraw",
      "outputs": [],
      "stateMutability": "nonpayable",
      "type": "function"
    }
  ],
  "bytecode": "0x60806040523480156200001157600080fd5b50604051620012ea380380620012ea83398181016040528101906200003791906200013d565b806000806101000a81548173ffffffffffffffffffffffffffffffffffffffff021916908373ffffffffffffffffffffffffffffffffffffffff16021790555033600260006101000a81548173ffffffffffffffffffffffffffffffffffffffff021916908373ffffffffffffffffffffffffffffffffffffffff160217905550506200016f565b600080fd5b600073ffffffffffffffffffffffffffffffffffffffff82169050919050565b6000620000f182620000c4565b9050919050565b60006200010582620000e4565b9050919050565b6200011781620000f8565b81146200012357600080fd5b50565b60008151905062000137816200010c565b92915050565b600060208284031215620001565762000155620000bf565b5b6000620001668482850162000126565b91505092915050565b61116b806200017f6000396000f3fe6080604052600436106100705760003560e01c8063450efe211161004e578063450efe21146100e25780634fa1f7ae1461011f5780635bfbc8571461013b5780638da5cb5b1461015757610070565b8063186fd74d1461007557806327506f53146100a05780633ccfd60b146100cb575b600080fd5b34801561008157600080fd5b5061008a610182565b60405161009791906106cd565b60405180910390f35b3480156100ac57600080fd5b506100b561018a565b6040516100c29190610900565b60405180910390f35b3480156100d757600080fd5b506100e06102ef565b005b3480156100ee57600080fd5b5061010960048036038101906101049190610962565b61042d565b6040516101169190610a3e565b60405180910390f35b61013960048036038101906101349190610b95565b6104d5565b005b61015560048036038101906101509190610c39565b610577565b005b34801561016357600080fd5b5061016c61061c565b6040516101799190610ce5565b60405180910390f35b600047905090565b60606003805480602002602001604051908101604052809291908181526020016000905b828210156102e657838290600052602060002090600502016040518060a00160405290816000820160009054906101000a900473ffffffffffffffffffffffffffffffffffffffff1673ffffffffffffffffffffffffffffffffffffffff1673ffffffffffffffffffffffffffffffffffffffff168152602001600182015481526020016002820154815260200160038201805461024b90610d2f565b80601f016020809104026020016040519081016040528092919081815260200182805461027790610d2f565b80156102c45780601f10610299576101008083540402835291602001916102c4565b820191906000526020600020905b8154815290600101906020018083116102a757829003601f168201915b50505050508152602001600482015481525050815260200190600101906101ae565b50505050905090565b600260009054906101000a900473ffffffffffffffffffffffffffffffffffffffff1673ffffffffffffffffffffffffffffffffffffffff163373ffffffffffffffffffffffffffffffffffffffff161461037f576040517f08c379a000000000000000000000000000000000000000000000000000000000815260040161037690610dbd565b60405180910390fd5b600047116103c2576040517f08c379a00000000000000000000000000000000000000000000000000000000081526004016103b990610e29565b60405180910390fd5b600260009054906101000a900473ffffffffffffffffffffffffffffffffffffffff1673ffffffffffffffffffffffffffffffffffffffff166108fc479081150290604051600060405180830381858888f1935050505015801561042a573d6000803e3d6000fd5b50565b606060008054906101000a900473ffffffffffffffffffffffffffffffffffffffff1673ffffffffffffffffffffffffffffffffffffffff1663450efe21836040518263ffffffff1660e01b81526004016104889190610e58565b600060405180830381865afa1580156104a5573d6000803e3d6000fd5b505050506040513d6000823e3d601f19601f820116820180604052508101906104ce9190610f50565b9050919050565b60003390506104e381610642565b60008054906101000a900473ffffffffffffffffffffffffffffffffffffffff1673ffffffffffffffffffffffffffffffffffffffff1663eca81d428285856040518463ffffffff1660e01b815260040161054093929190611031565b600060405180830381600087803b15801561055a57600080fd5b505af115801561056e573d6000803e3d6000fd5b50505050505050565b600033905061058581610642565b60008054906101000a900473ffffffffffffffffffffffffffffffffffffffff1673ffffffffffffffffffffffffffffffffffffffff1663476f6fdd828686866040518563ffffffff1660e01b81526004016105e49493929190611076565b600060405180830381600087803b1580156105fe57600080fd5b505af1158015610612573d6000803e3d6000fd5b5050505050505050565b600260009054906101000a900473ffffffffffffffffffffffffffffffffffffffff1681565b600073ffffffffffffffffffffffffffffffffffffffff168173ffffffffffffffffffffffffffffffffffffffff16036106b1576040517f08c379a00000000000000000000000000000000000000000000000000000000081526004016106a890611115565b60405180910390fd5b50565b6000819050919050565b6106c7816106b4565b82525050565b60006020820190506106e260008301846106be565b92915050565b600081519050919050565b600082825260208201905092915050565b6000819050602082019050919050565b600073ffffffffffffffffffffffffffffffffffffffff82169050919050565b600061073f82610714565b9050919050565b61074f81610734565b82525050565b61075e816106b4565b82525050565b600081519050919050565b600082825260208201905092915050565b60005b8381101561079e578082015181840152602081019050610783565b60008484015250505050565b6000601f19601f8301169050919050565b60006107c682610764565b6107d0818561076f565b93506107e0818560208601610780565b6107e9816107aa565b840191505092915050565b600060a08301600083015161080c6000860182610746565b50602083015161081f6020860182610755565b5060408301516108326040860182610755565b506060830151848203606086015261084a82826107bb565b915050608083015161085f6080860182610755565b508091505092915050565b600061087683836107f4565b905092915050565b6000602082019050919050565b6000610896826106e8565b6108a081856106f3565b9350836020820285016108b285610704565b8060005b858110156108ee57848403895281516108cf858261086a565b94506108da8361087e565b925060208a019950506001810190506108b6565b50829750879550505050505092915050565b6000602082019050818103600083015261091a818461088b565b905092915050565b6000604051905090565b600080fd5b600080fd5b61093f81610734565b811461094a57600080fd5b50565b60008135905061095c81610936565b92915050565b6000602082840312156109785761097761092c565b5b60006109868482850161094d565b91505092915050565b600081519050919050565b600082825260208201905092915050565b6000819050602082019050919050565b60006109c78383610755565b60208301905092915050565b6000602082019050919050565b60006109eb8261098f565b6109f5818561099a565b9350610a00836109ab565b8060005b83811015610a31578151610a1888826109bb565b9750610a23836109d3565b925050600181019050610a04565b5085935050505092915050565b60006020820190508181036000830152610a5881846109e0565b905092915050565b600080fd5b600080fd5b7f4e487b7100000000000000000000000000000000000000000000000000000000600052604160045260246000fd5b610aa2826107aa565b810181811067ffffffffffffffff82111715610ac157610ac0610a6a565b5b80604052505050565b6000610ad4610922565b9050610ae08282610a99565b919050565b600067ffffffffffffffff821115610b0057610aff610a6a565b5b610b09826107aa565b9050602081019050919050565b82818337600083830152505050565b6000610b38610b3384610ae5565b610aca565b905082815260208101848484011115610b5457610b53610a65565b5b610b5f848285610b16565b509392505050565b600082601f830112610b7c57610b7b610a60565b5b8135610b8c848260208601610b25565b91505092915050565b60008060408385031215610bac57610bab61092c565b5b600083013567ffffffffffffffff811115610bca57610bc9610931565b5b610bd685828601610b67565b925050602083013567ffffffffffffffff811115610bf757610bf6610931565b5b610c0385828601610b67565b9150509250929050565b610c16816106b4565b8114610c2157600080fd5b50565b600081359050610c3381610c0d565b92915050565b600080600060608486031215610c5257610c5161092c565b5b600084013567ffffffffffffffff811115610c7057610c6f610931565b5b610c7c86828701610b67565b935050602084013567ffffffffffffffff811115610c9d57610c9c610931565b5b610ca986828701610b67565b9250506040610cba86828701610c24565b9150509250925092565b6000610ccf82610714565b9050919050565b610cdf81610cc4565b82525050565b6000602082019050610cfa6000830184610cd6565b92915050565b7f4e487b7100000000000000000000000000000000000000000000000000000000600052602260045260246000fd5b60006002820490506001821680610d4757607f821691505b602082108103610d5a57610d59610d00565b5b50919050565b600082825260208201905092915050565b7f6f6e6c795f6f776e65725f616363657373000000000000000000000000000000600082015250565b6000610da7601183610d60565b9150610db282610d71565b602082019050919050565b60006020820190508181036000830152610dd681610d9a565b9050919050565b7f7a65726f5f62616c616e63650000000000000000000000000000000000000000600082015250565b6000610e13600c83610d60565b9150610e1e82610ddd565b602082019050919050565b60006020820190508181036000830152610e4281610e06565b9050919050565b610e5281610734565b82525050565b6000602082019050610e6d6000830184610e49565b92915050565b600067ffffffffffffffff821115610e8e57610e8d610a6a565b5b602082029050602081019050919050565b600080fd5b600081519050610eb381610c0d565b92915050565b6000610ecc610ec784610e73565b610aca565b90508083825260208201905060208402830185811115610eef57610eee610e9f565b5b835b81811015610f185780610f048882610ea4565b845260208401935050602081019050610ef1565b5050509392505050565b600082601f830112610f3757610f36610a60565b5b8151610f47848260208601610eb9565b91505092915050565b600060208284031215610f6657610f6561092c565b5b600082015167ffffffffffffffff811115610f8457610f83610931565b5b610f9084828501610f22565b91505092915050565b6000819050919050565b6000610fbe610fb9610fb484610714565b610f99565b610714565b9050919050565b6000610fd082610fa3565b9050919050565b6000610fe282610fc5565b9050919050565b610ff281610fd7565b82525050565b600061100382610764565b61100d8185610d60565b935061101d818560208601610780565b611026816107aa565b840191505092915050565b60006060820190506110466000830186610fe9565b81810360208301526110588185610ff8565b9050818103604083015261106c8184610ff8565b9050949350505050565b600060808201905061108b6000830187610fe9565b818103602083015261109d8186610ff8565b905081810360408301526110b18185610ff8565b90506110c060608301846106be565b95945050505050565b7f496e76616c696420616464726573730000000000000000000000000000000000600082015250565b60006110ff600f83610d60565b915061110a826110c9565b602082019050919050565b6000602082019050818103600083015261112e816110f2565b905091905056fea2646970667358221220edbdd7d0d39a0f4c497de3e6ead5a45baefe4e3db428f8a099b35ec97b93a37364736f6c63430008140033",
  "linkReferences": {},
  "deployedLinkReferences": {}
}