{
  "_format": "hh-sol-artifact-1",
  "contractName": "PncaOlympix",
  "sourceName": "contracts/PncaOlympix.sol",
  "abi": [
    {
      "inputs": [
        {
          "internalType": "contract Token",
          "name": "_tokenAddress",
          "type": "address"
        }
      ],
      "stateMutability": "nonpayable",
      "type": "constructor"
    },
    {
      "anonymous": false,
      "inputs": [
        {
          "indexed": false,
          "internalType": "address",
          "name": "purchaser",
          "type": "address"
        },
        {
          "indexed": false,
          "internalType": "uint256",
          "name": "amount",
          "type": "uint256"
        },
        {
          "indexed": false,
          "internalType": "uint256",
          "name": "timestamp",
          "type": "uint256"
        }
      ],
      "name": "TokensPurchased",
      "type": "event"
    },
    {
      "inputs": [],
      "name": "_weiRaised",
      "outputs": [
        {
          "internalType": "uint256",
          "name": "",
          "type": "uint256"
        }
      ],
      "stateMutability": "view",
      "type": "function"
    },
    {
      "inputs": [],
      "name": "amountInETHReceived",
      "outputs": [
        {
          "internalType": "uint256",
          "name": "",
          "type": "uint256"
        }
      ],
      "stateMutability": "view",
      "type": "function"
    },
    {
      "inputs": [],
      "name": "approveContract",
      "outputs": [],
      "stateMutability": "nonpayable",
      "type": "function"
    },
    {
      "inputs": [],
      "name": "balance",
      "outputs": [
        {
          "internalType": "uint256",
          "name": "",
          "type": "uint256"
        }
      ],
      "stateMutability": "view",
      "type": "function"
    },
    {
      "inputs": [],
      "name": "gas",
      "outputs": [],
      "stateMutability": "payable",
      "type": "function"
    },
    {
      "inputs": [],
      "name": "getAllTransactions",
      "outputs": [
        {
          "components": [
            {
              "internalType": "address",
              "name": "purchaser",
              "type": "address"
            },
            {
              "internalType": "uint256",
              "name": "amount",
              "type": "uint256"
            },
            {
              "internalType": "uint256",
              "name": "timestamp",
              "type": "uint256"
            }
          ],
          "internalType": "struct PncaOlympix.TokensPurchasedStruct[]",
          "name": "",
          "type": "tuple[]"
        }
      ],
      "stateMutability": "view",
      "type": "function"
    },
    {
      "inputs": [],
      "name": "getTransactionCount",
      "outputs": [
        {
          "internalType": "uint256",
          "name": "",
          "type": "uint256"
        }
      ],
      "stateMutability": "view",
      "type": "function"
    },
    {
      "inputs": [],
      "name": "owner",
      "outputs": [
        {
          "internalType": "address payable",
          "name": "",
          "type": "address"
        }
      ],
      "stateMutability": "view",
      "type": "function"
    },
    {
      "inputs": [],
      "name": "totalSupplyOfToken",
      "outputs": [
        {
          "internalType": "uint256",
          "name": "",
          "type": "uint256"
        }
      ],
      "stateMutability": "view",
      "type": "function"
    },
    {
      "inputs": [],
      "name": "transferTokens",
      "outputs": [],
      "stateMutability": "nonpayable",
      "type": "function"
    },
    {
      "inputs": [],
      "name": "withdraw",
      "outputs": [],
      "stateMutability": "nonpayable",
      "type": "function"
    }
  ],
  "bytecode": "0x608060405260006002553480156200001657600080fd5b50604051620012863803806200128683398181016040528101906200003c919062000142565b80600160006101000a81548173ffffffffffffffffffffffffffffffffffffffff021916908373ffffffffffffffffffffffffffffffffffffffff160217905550336000806101000a81548173ffffffffffffffffffffffffffffffffffffffff021916908373ffffffffffffffffffffffffffffffffffffffff1602179055505062000174565b600080fd5b600073ffffffffffffffffffffffffffffffffffffffff82169050919050565b6000620000f682620000c9565b9050919050565b60006200010a82620000e9565b9050919050565b6200011c81620000fd565b81146200012857600080fd5b50565b6000815190506200013c8162000111565b92915050565b6000602082840312156200015b576200015a620000c4565b5b60006200016b848285016200012b565b91505092915050565b61110280620001846000396000f3fe60806040526004361061009c5760003560e01c806343d00d041161006457806343d00d04146101505780634c7b9ef9146101675780636ca7c216146101925780638da5cb5b1461019c57806394a5aa8d146101c7578063b69ef8a8146101f25761009c565b80631792b0bc146100a1578063186fd74d146100b857806327506f53146100e35780632e7700f01461010e5780633ccfd60b14610139575b600080fd5b3480156100ad57600080fd5b506100b661021d565b005b3480156100c457600080fd5b506100cd610477565b6040516100da9190610a84565b60405180910390f35b3480156100ef57600080fd5b506100f861047f565b6040516101059190610be0565b60405180910390f35b34801561011a57600080fd5b50610123610548565b6040516101309190610a84565b60405180910390f35b34801561014557600080fd5b5061014e610552565b005b34801561015c57600080fd5b5061016561068c565b005b34801561017357600080fd5b5061017c6107bf565b6040516101899190610a84565b60405180910390f35b61019a610857565b005b3480156101a857600080fd5b506101b161088a565b6040516101be9190610c23565b60405180910390f35b3480156101d357600080fd5b506101dc6108ae565b6040516101e99190610a84565b60405180910390f35b3480156101fe57600080fd5b506102076108b4565b6040516102149190610a84565b60405180910390f35b60003390506000600160009054906101000a900473ffffffffffffffffffffffffffffffffffffffff1673ffffffffffffffffffffffffffffffffffffffff166370a08231836040518263ffffffff1660e01b815260040161027f9190610c9d565b602060405180830381865afa15801561029c573d6000803e3d6000fd5b505050506040513d601f19601f820116820180604052508101906102c09190610ce9565b9050600160009054906101000a900473ffffffffffffffffffffffffffffffffffffffff1673ffffffffffffffffffffffffffffffffffffffff166323b872dd8330846040518463ffffffff1660e01b815260040161032193929190610d25565b6020604051808303816000875af1158015610340573d6000803e3d6000fd5b505050506040513d601f19601f820116820180604052508101906103649190610d94565b506001600360008282546103789190610df0565b92505081905550600460405180606001604052808473ffffffffffffffffffffffffffffffffffffffff16815260200183815260200142815250908060018154018082558091505060019003906000526020600020906003020160009091909190915060008201518160000160006101000a81548173ffffffffffffffffffffffffffffffffffffffff021916908373ffffffffffffffffffffffffffffffffffffffff160217905550602082015181600101556040820151816002015550507f8fafebcaf9d154343dad25669bfa277f4fbacd7ac6b0c4fed522580e040a0f3382824260405161046b93929190610e24565b60405180910390a15050565b600047905090565b60606004805480602002602001604051908101604052809291908181526020016000905b8282101561053f57838290600052602060002090600302016040518060600160405290816000820160009054906101000a900473ffffffffffffffffffffffffffffffffffffffff1673ffffffffffffffffffffffffffffffffffffffff1673ffffffffffffffffffffffffffffffffffffffff16815260200160018201548152602001600282015481525050815260200190600101906104a3565b50505050905090565b6000600354905090565b60008054906101000a900473ffffffffffffffffffffffffffffffffffffffff1673ffffffffffffffffffffffffffffffffffffffff163373ffffffffffffffffffffffffffffffffffffffff16146105e0576040517f08c379a00000000000000000000000000000000000000000000000000000000081526004016105d790610eb8565b60405180910390fd5b60004711610623576040517f08c379a000000000000000000000000000000000000000000000000000000000815260040161061a90610f24565b60405180910390fd5b60008054906101000a900473ffffffffffffffffffffffffffffffffffffffff1673ffffffffffffffffffffffffffffffffffffffff166108fc479081150290604051600060405180830381858888f19350505050158015610689573d6000803e3d6000fd5b50565b600160009054906101000a900473ffffffffffffffffffffffffffffffffffffffff1673ffffffffffffffffffffffffffffffffffffffff1663095ea7b330600160009054906101000a900473ffffffffffffffffffffffffffffffffffffffff1673ffffffffffffffffffffffffffffffffffffffff166318160ddd6040518163ffffffff1660e01b8152600401602060405180830381865afa158015610738573d6000803e3d6000fd5b505050506040513d601f19601f8201168201806040525081019061075c9190610ce9565b6040518363ffffffff1660e01b8152600401610779929190610f44565b6020604051808303816000875af1158015610798573d6000803e3d6000fd5b505050506040513d601f19601f820116820180604052508101906107bc9190610d94565b50565b6000600160009054906101000a900473ffffffffffffffffffffffffffffffffffffffff1673ffffffffffffffffffffffffffffffffffffffff166318160ddd6040518163ffffffff1660e01b8152600401602060405180830381865afa15801561082e573d6000803e3d6000fd5b505050506040513d601f19601f820116820180604052508101906108529190610ce9565b905090565b6000339050600034905061086b8282610957565b61088081600254610a0d90919063ffffffff16565b6002819055505050565b60008054906101000a900473ffffffffffffffffffffffffffffffffffffffff1681565b60025481565b6000600160009054906101000a900473ffffffffffffffffffffffffffffffffffffffff1673ffffffffffffffffffffffffffffffffffffffff166370a08231306040518263ffffffff1660e01b81526004016109119190610f6d565b602060405180830381865afa15801561092e573d6000803e3d6000fd5b505050506040513d601f19601f820116820180604052508101906109529190610ce9565b905090565b600073ffffffffffffffffffffffffffffffffffffffff168273ffffffffffffffffffffffffffffffffffffffff16036109c6576040517f08c379a00000000000000000000000000000000000000000000000000000000081526004016109bd90610fd4565b60405180910390fd5b60008103610a09576040517f08c379a0000000000000000000000000000000000000000000000000000000008152600401610a0090611040565b60405180910390fd5b5050565b6000808284610a1c9190610df0565b905083811015610a61576040517f08c379a0000000000000000000000000000000000000000000000000000000008152600401610a58906110ac565b60405180910390fd5b8091505092915050565b6000819050919050565b610a7e81610a6b565b82525050565b6000602082019050610a996000830184610a75565b92915050565b600081519050919050565b600082825260208201905092915050565b6000819050602082019050919050565b600073ffffffffffffffffffffffffffffffffffffffff82169050919050565b6000610af682610acb565b9050919050565b610b0681610aeb565b82525050565b610b1581610a6b565b82525050565b606082016000820151610b316000850182610afd565b506020820151610b446020850182610b0c565b506040820151610b576040850182610b0c565b50505050565b6000610b698383610b1b565b60608301905092915050565b6000602082019050919050565b6000610b8d82610a9f565b610b978185610aaa565b9350610ba283610abb565b8060005b83811015610bd3578151610bba8882610b5d565b9750610bc583610b75565b925050600181019050610ba6565b5085935050505092915050565b60006020820190508181036000830152610bfa8184610b82565b905092915050565b6000610c0d82610acb565b9050919050565b610c1d81610c02565b82525050565b6000602082019050610c386000830184610c14565b92915050565b6000819050919050565b6000610c63610c5e610c5984610acb565b610c3e565b610acb565b9050919050565b6000610c7582610c48565b9050919050565b6000610c8782610c6a565b9050919050565b610c9781610c7c565b82525050565b6000602082019050610cb26000830184610c8e565b92915050565b600080fd5b610cc681610a6b565b8114610cd157600080fd5b50565b600081519050610ce381610cbd565b92915050565b600060208284031215610cff57610cfe610cb8565b5b6000610d0d84828501610cd4565b91505092915050565b610d1f81610aeb565b82525050565b6000606082019050610d3a6000830186610c8e565b610d476020830185610d16565b610d546040830184610a75565b949350505050565b60008115159050919050565b610d7181610d5c565b8114610d7c57600080fd5b50565b600081519050610d8e81610d68565b92915050565b600060208284031215610daa57610da9610cb8565b5b6000610db884828501610d7f565b91505092915050565b7f4e487b7100000000000000000000000000000000000000000000000000000000600052601160045260246000fd5b6000610dfb82610a6b565b9150610e0683610a6b565b9250828201905080821115610e1e57610e1d610dc1565b5b92915050565b6000606082019050610e396000830186610c8e565b610e466020830185610a75565b610e536040830184610a75565b949350505050565b600082825260208201905092915050565b7f6f6e6c795f6f776e65725f616363657373000000000000000000000000000000600082015250565b6000610ea2601183610e5b565b9150610ead82610e6c565b602082019050919050565b60006020820190508181036000830152610ed181610e95565b9050919050565b7f7a65726f5f62616c616e63650000000000000000000000000000000000000000600082015250565b6000610f0e600c83610e5b565b9150610f1982610ed8565b602082019050919050565b60006020820190508181036000830152610f3d81610f01565b9050919050565b6000604082019050610f596000830185610d16565b610f666020830184610a75565b9392505050565b6000602082019050610f826000830184610d16565b92915050565b7f496e76616c696420616464726573730000000000000000000000000000000000600082015250565b6000610fbe600f83610e5b565b9150610fc982610f88565b602082019050919050565b60006020820190508181036000830152610fed81610fb1565b9050919050565b7f496e73756666696369656e742062696400000000000000000000000000000000600082015250565b600061102a601083610e5b565b915061103582610ff4565b602082019050919050565b600060208201905081810360008301526110598161101d565b9050919050565b7f536166654d6174683a206164646974696f6e206f766572666c6f770000000000600082015250565b6000611096601b83610e5b565b91506110a182611060565b602082019050919050565b600060208201905081810360008301526110c581611089565b905091905056fea2646970667358221220d60474a38c7bc1e1c305b1454913ed9ba871834682fb2d894dc88e33095f4dce64736f6c63430008140033",
  "linkReferences": {},
  "deployedLinkReferences": {}
}