{
  "_format": "hh-sol-artifact-1",
  "contractName": "EstateX",
  "sourceName": "contracts/EstateX.sol",
  "abi": [
    {
      "inputs": [
        {
          "internalType": "uint256",
          "name": "cap",
          "type": "uint256"
        },
        {
          "internalType": "uint256",
          "name": "rate",
          "type": "uint256"
        }
      ],
      "stateMutability": "nonpayable",
      "type": "constructor"
    },
    {
      "inputs": [
        {
          "internalType": "uint256",
          "name": "increasedSupply",
          "type": "uint256"
        },
        {
          "internalType": "uint256",
          "name": "cap",
          "type": "uint256"
        }
      ],
      "name": "ERC20ExceededCap",
      "type": "error"
    },
    {
      "inputs": [
        {
          "internalType": "address",
          "name": "spender",
          "type": "address"
        },
        {
          "internalType": "uint256",
          "name": "allowance",
          "type": "uint256"
        },
        {
          "internalType": "uint256",
          "name": "needed",
          "type": "uint256"
        }
      ],
      "name": "ERC20InsufficientAllowance",
      "type": "error"
    },
    {
      "inputs": [
        {
          "internalType": "address",
          "name": "sender",
          "type": "address"
        },
        {
          "internalType": "uint256",
          "name": "balance",
          "type": "uint256"
        },
        {
          "internalType": "uint256",
          "name": "needed",
          "type": "uint256"
        }
      ],
      "name": "ERC20InsufficientBalance",
      "type": "error"
    },
    {
      "inputs": [
        {
          "internalType": "address",
          "name": "approver",
          "type": "address"
        }
      ],
      "name": "ERC20InvalidApprover",
      "type": "error"
    },
    {
      "inputs": [
        {
          "internalType": "uint256",
          "name": "cap",
          "type": "uint256"
        }
      ],
      "name": "ERC20InvalidCap",
      "type": "error"
    },
    {
      "inputs": [
        {
          "internalType": "address",
          "name": "receiver",
          "type": "address"
        }
      ],
      "name": "ERC20InvalidReceiver",
      "type": "error"
    },
    {
      "inputs": [
        {
          "internalType": "address",
          "name": "sender",
          "type": "address"
        }
      ],
      "name": "ERC20InvalidSender",
      "type": "error"
    },
    {
      "inputs": [
        {
          "internalType": "address",
          "name": "spender",
          "type": "address"
        }
      ],
      "name": "ERC20InvalidSpender",
      "type": "error"
    },
    {
      "anonymous": false,
      "inputs": [
        {
          "indexed": true,
          "internalType": "address",
          "name": "owner",
          "type": "address"
        },
        {
          "indexed": true,
          "internalType": "address",
          "name": "spender",
          "type": "address"
        },
        {
          "indexed": false,
          "internalType": "uint256",
          "name": "value",
          "type": "uint256"
        }
      ],
      "name": "Approval",
      "type": "event"
    },
    {
      "anonymous": false,
      "inputs": [
        {
          "indexed": false,
          "internalType": "address",
          "name": "purchaser",
          "type": "address"
        },
        {
          "indexed": false,
          "internalType": "uint256",
          "name": "value",
          "type": "uint256"
        },
        {
          "indexed": false,
          "internalType": "uint256",
          "name": "amount",
          "type": "uint256"
        },
        {
          "indexed": false,
          "internalType": "uint256",
          "name": "timestamp",
          "type": "uint256"
        }
      ],
      "name": "TokensPurchased",
      "type": "event"
    },
    {
      "anonymous": false,
      "inputs": [
        {
          "indexed": true,
          "internalType": "address",
          "name": "from",
          "type": "address"
        },
        {
          "indexed": true,
          "internalType": "address",
          "name": "to",
          "type": "address"
        },
        {
          "indexed": false,
          "internalType": "uint256",
          "name": "value",
          "type": "uint256"
        }
      ],
      "name": "Transfer",
      "type": "event"
    },
    {
      "inputs": [],
      "name": "_rate",
      "outputs": [
        {
          "internalType": "uint256",
          "name": "",
          "type": "uint256"
        }
      ],
      "stateMutability": "view",
      "type": "function"
    },
    {
      "inputs": [],
      "name": "_weiRaised",
      "outputs": [
        {
          "internalType": "uint256",
          "name": "",
          "type": "uint256"
        }
      ],
      "stateMutability": "view",
      "type": "function"
    },
    {
      "inputs": [
        {
          "internalType": "address",
          "name": "owner",
          "type": "address"
        },
        {
          "internalType": "address",
          "name": "spender",
          "type": "address"
        }
      ],
      "name": "allowance",
      "outputs": [
        {
          "internalType": "uint256",
          "name": "",
          "type": "uint256"
        }
      ],
      "stateMutability": "view",
      "type": "function"
    },
    {
      "inputs": [],
      "name": "amountInETHReceived",
      "outputs": [
        {
          "internalType": "uint256",
          "name": "",
          "type": "uint256"
        }
      ],
      "stateMutability": "view",
      "type": "function"
    },
    {
      "inputs": [
        {
          "internalType": "address",
          "name": "spender",
          "type": "address"
        },
        {
          "internalType": "uint256",
          "name": "value",
          "type": "uint256"
        }
      ],
      "name": "approve",
      "outputs": [
        {
          "internalType": "bool",
          "name": "",
          "type": "bool"
        }
      ],
      "stateMutability": "nonpayable",
      "type": "function"
    },
    {
      "inputs": [
        {
          "internalType": "address",
          "name": "account",
          "type": "address"
        }
      ],
      "name": "balanceOf",
      "outputs": [
        {
          "internalType": "uint256",
          "name": "",
          "type": "uint256"
        }
      ],
      "stateMutability": "view",
      "type": "function"
    },
    {
      "inputs": [],
      "name": "buyTokens",
      "outputs": [],
      "stateMutability": "payable",
      "type": "function"
    },
    {
      "inputs": [],
      "name": "cap",
      "outputs": [
        {
          "internalType": "uint256",
          "name": "",
          "type": "uint256"
        }
      ],
      "stateMutability": "view",
      "type": "function"
    },
    {
      "inputs": [
        {
          "internalType": "uint256",
          "name": "weiAmount",
          "type": "uint256"
        }
      ],
      "name": "claimReferralTokens",
      "outputs": [],
      "stateMutability": "nonpayable",
      "type": "function"
    },
    {
      "inputs": [],
      "name": "decimals",
      "outputs": [
        {
          "internalType": "uint8",
          "name": "",
          "type": "uint8"
        }
      ],
      "stateMutability": "view",
      "type": "function"
    },
    {
      "inputs": [],
      "name": "getAllTransactions",
      "outputs": [
        {
          "components": [
            {
              "internalType": "address",
              "name": "purchaser",
              "type": "address"
            },
            {
              "internalType": "uint256",
              "name": "value",
              "type": "uint256"
            },
            {
              "internalType": "uint256",
              "name": "amount",
              "type": "uint256"
            },
            {
              "internalType": "uint256",
              "name": "timestamp",
              "type": "uint256"
            }
          ],
          "internalType": "struct EstateX.TokensPurchasedStruct[]",
          "name": "",
          "type": "tuple[]"
        }
      ],
      "stateMutability": "view",
      "type": "function"
    },
    {
      "inputs": [],
      "name": "getTransactionCount",
      "outputs": [
        {
          "internalType": "uint256",
          "name": "",
          "type": "uint256"
        }
      ],
      "stateMutability": "view",
      "type": "function"
    },
    {
      "inputs": [],
      "name": "hardCap",
      "outputs": [
        {
          "internalType": "uint256",
          "name": "",
          "type": "uint256"
        }
      ],
      "stateMutability": "view",
      "type": "function"
    },
    {
      "inputs": [],
      "name": "maxPurchase",
      "outputs": [
        {
          "internalType": "uint256",
          "name": "",
          "type": "uint256"
        }
      ],
      "stateMutability": "view",
      "type": "function"
    },
    {
      "inputs": [],
      "name": "minPurchase",
      "outputs": [
        {
          "internalType": "uint256",
          "name": "",
          "type": "uint256"
        }
      ],
      "stateMutability": "view",
      "type": "function"
    },
    {
      "inputs": [],
      "name": "name",
      "outputs": [
        {
          "internalType": "string",
          "name": "",
          "type": "string"
        }
      ],
      "stateMutability": "view",
      "type": "function"
    },
    {
      "inputs": [],
      "name": "owner",
      "outputs": [
        {
          "internalType": "address payable",
          "name": "",
          "type": "address"
        }
      ],
      "stateMutability": "view",
      "type": "function"
    },
    {
      "inputs": [
        {
          "internalType": "uint256",
          "name": "value",
          "type": "uint256"
        }
      ],
      "name": "setHardCap",
      "outputs": [],
      "stateMutability": "nonpayable",
      "type": "function"
    },
    {
      "inputs": [
        {
          "internalType": "uint256",
          "name": "newRate",
          "type": "uint256"
        }
      ],
      "name": "setRate",
      "outputs": [],
      "stateMutability": "nonpayable",
      "type": "function"
    },
    {
      "inputs": [],
      "name": "symbol",
      "outputs": [
        {
          "internalType": "string",
          "name": "",
          "type": "string"
        }
      ],
      "stateMutability": "view",
      "type": "function"
    },
    {
      "inputs": [],
      "name": "totalSupply",
      "outputs": [
        {
          "internalType": "uint256",
          "name": "",
          "type": "uint256"
        }
      ],
      "stateMutability": "view",
      "type": "function"
    },
    {
      "inputs": [
        {
          "internalType": "address",
          "name": "to",
          "type": "address"
        },
        {
          "internalType": "uint256",
          "name": "value",
          "type": "uint256"
        }
      ],
      "name": "transfer",
      "outputs": [
        {
          "internalType": "bool",
          "name": "",
          "type": "bool"
        }
      ],
      "stateMutability": "nonpayable",
      "type": "function"
    },
    {
      "inputs": [
        {
          "internalType": "address",
          "name": "from",
          "type": "address"
        },
        {
          "internalType": "address",
          "name": "to",
          "type": "address"
        },
        {
          "internalType": "uint256",
          "name": "value",
          "type": "uint256"
        }
      ],
      "name": "transferFrom",
      "outputs": [
        {
          "internalType": "bool",
          "name": "",
          "type": "bool"
        }
      ],
      "stateMutability": "nonpayable",
      "type": "function"
    },
    {
      "inputs": [],
      "name": "weiRaised",
      "outputs": [
        {
          "internalType": "uint256",
          "name": "",
          "type": "uint256"
        }
      ],
      "stateMutability": "view",
      "type": "function"
    },
    {
      "inputs": [],
      "name": "withdraw",
      "outputs": [],
      "stateMutability": "nonpayable",
      "type": "function"
    },
    {
      "stateMutability": "payable",
      "type": "receive"
    }
  ],
  "bytecode": "0x60a0604052600060075567016345785d8a0000600855670de0b6b3a7640000600955620000316200024560201b60201c565b600a6200003f919062000793565b614e206200004e9190620007e4565b600a553480156200005e57600080fd5b506040516200313838038062003138833981810160405281019062000084919062000865565b620000946200024560201b60201c565b600a620000a2919062000793565b82620000af9190620007e4565b6040518060400160405280600781526020017f45737461746558000000000000000000000000000000000000000000000000008152506040518060400160405280600381526020017f455358000000000000000000000000000000000000000000000000000000000081525081600390816200012c919062000b1c565b5080600490816200013e919062000b1c565b505050600081036200018a5760006040517f392e1e2700000000000000000000000000000000000000000000000000000000815260040162000181919062000c46565b60405180910390fd5b80608081815250505033600560006101000a81548173ffffffffffffffffffffffffffffffffffffffff021916908373ffffffffffffffffffffffffffffffffffffffff160217905550806006819055506200023d600560009054906101000a900473ffffffffffffffffffffffffffffffffffffffff16620002126200024560201b60201c565b600a62000220919062000793565b6305f5e100620002319190620007e4565b6200024e60201b60201c565b505062000d98565b60006012905090565b600073ffffffffffffffffffffffffffffffffffffffff168273ffffffffffffffffffffffffffffffffffffffff1603620002c35760006040517fec442f05000000000000000000000000000000000000000000000000000000008152600401620002ba919062000ca8565b60405180910390fd5b620002d760008383620002db60201b60201c565b5050565b620002ee838383620002f360201b60201c565b505050565b62000306838383620003b560201b60201c565b600073ffffffffffffffffffffffffffffffffffffffff168373ffffffffffffffffffffffffffffffffffffffff1603620003b05760006200034d620005e560201b60201c565b9050600062000361620005ef60201b60201c565b905081811115620003ad5780826040517f9e79f854000000000000000000000000000000000000000000000000000000008152600401620003a492919062000cd6565b60405180910390fd5b50505b505050565b600073ffffffffffffffffffffffffffffffffffffffff168373ffffffffffffffffffffffffffffffffffffffff16036200040b578060026000828254620003fe919062000d03565b92505081905550620004e1565b60008060008573ffffffffffffffffffffffffffffffffffffffff1673ffffffffffffffffffffffffffffffffffffffff168152602001908152602001600020549050818110156200049a578381836040517fe450d38c000000000000000000000000000000000000000000000000000000008152600401620004919392919062000d3e565b60405180910390fd5b8181036000808673ffffffffffffffffffffffffffffffffffffffff1673ffffffffffffffffffffffffffffffffffffffff16815260200190815260200160002081905550505b600073ffffffffffffffffffffffffffffffffffffffff168273ffffffffffffffffffffffffffffffffffffffff16036200052c578060026000828254039250508190555062000579565b806000808473ffffffffffffffffffffffffffffffffffffffff1673ffffffffffffffffffffffffffffffffffffffff168152602001908152602001600020600082825401925050819055505b8173ffffffffffffffffffffffffffffffffffffffff168373ffffffffffffffffffffffffffffffffffffffff167fddf252ad1be2c89b69c2b068fc378daa952ba7f163c4a11628f55a4df523b3ef83604051620005d8919062000d7b565b60405180910390a3505050565b6000608051905090565b6000600254905090565b7f4e487b7100000000000000000000000000000000000000000000000000000000600052601160045260246000fd5b60008160011c9050919050565b6000808291508390505b600185111562000687578086048111156200065f576200065e620005f9565b5b60018516156200066f5780820291505b80810290506200067f8562000628565b94506200063f565b94509492505050565b600082620006a2576001905062000775565b81620006b2576000905062000775565b8160018114620006cb5760028114620006d6576200070c565b600191505062000775565b60ff841115620006eb57620006ea620005f9565b5b8360020a915084821115620007055762000704620005f9565b5b5062000775565b5060208310610133831016604e8410600b8410161715620007465782820a90508381111562000740576200073f620005f9565b5b62000775565b62000755848484600162000635565b925090508184048111156200076f576200076e620005f9565b5b81810290505b9392505050565b6000819050919050565b600060ff82169050919050565b6000620007a0826200077c565b9150620007ad8362000786565b9250620007dc7fffffffffffffffffffffffffffffffffffffffffffffffffffffffffffffffff848462000690565b905092915050565b6000620007f1826200077c565b9150620007fe836200077c565b92508282026200080e816200077c565b91508282048414831517620008285762000827620005f9565b5b5092915050565b600080fd5b6200083f816200077c565b81146200084b57600080fd5b50565b6000815190506200085f8162000834565b92915050565b600080604083850312156200087f576200087e6200082f565b5b60006200088f858286016200084e565b9250506020620008a2858286016200084e565b9150509250929050565b600081519050919050565b7f4e487b7100000000000000000000000000000000000000000000000000000000600052604160045260246000fd5b7f4e487b7100000000000000000000000000000000000000000000000000000000600052602260045260246000fd5b600060028204905060018216806200092e57607f821691505b602082108103620009445762000943620008e6565b5b50919050565b60008190508160005260206000209050919050565b60006020601f8301049050919050565b600082821b905092915050565b600060088302620009ae7fffffffffffffffffffffffffffffffffffffffffffffffffffffffffffffffff826200096f565b620009ba86836200096f565b95508019841693508086168417925050509392505050565b6000819050919050565b6000620009fd620009f7620009f1846200077c565b620009d2565b6200077c565b9050919050565b6000819050919050565b62000a1983620009dc565b62000a3162000a288262000a04565b8484546200097c565b825550505050565b600090565b62000a4862000a39565b62000a5581848462000a0e565b505050565b5b8181101562000a7d5762000a7160008262000a3e565b60018101905062000a5b565b5050565b601f82111562000acc5762000a96816200094a565b62000aa1846200095f565b8101602085101562000ab1578190505b62000ac962000ac0856200095f565b83018262000a5a565b50505b505050565b600082821c905092915050565b600062000af16000198460080262000ad1565b1980831691505092915050565b600062000b0c838362000ade565b9150826002028217905092915050565b62000b2782620008ac565b67ffffffffffffffff81111562000b435762000b42620008b7565b5b62000b4f825462000915565b62000b5c82828562000a81565b600060209050601f83116001811462000b94576000841562000b7f578287015190505b62000b8b858262000afe565b86555062000bfb565b601f19841662000ba4866200094a565b60005b8281101562000bce5784890151825560018201915060208501945060208101905062000ba7565b8683101562000bee578489015162000bea601f89168262000ade565b8355505b6001600288020188555050505b505050505050565b6000819050919050565b600062000c2e62000c2862000c228462000c03565b620009d2565b6200077c565b9050919050565b62000c408162000c0d565b82525050565b600060208201905062000c5d600083018462000c35565b92915050565b600073ffffffffffffffffffffffffffffffffffffffff82169050919050565b600062000c908262000c63565b9050919050565b62000ca28162000c83565b82525050565b600060208201905062000cbf600083018462000c97565b92915050565b62000cd0816200077c565b82525050565b600060408201905062000ced600083018562000cc5565b62000cfc602083018462000cc5565b9392505050565b600062000d10826200077c565b915062000d1d836200077c565b925082820190508082111562000d385762000d37620005f9565b5b92915050565b600060608201905062000d55600083018662000c97565b62000d64602083018562000cc5565b62000d73604083018462000cc5565b949350505050565b600060208201905062000d92600083018462000cc5565b92915050565b60805161238462000db460003960006109bb01526123846000f3fe60806040526004361061016a5760003560e01c80634042b66f116100d157806395d89b411161008a578063d0febe4c11610064578063d0febe4c14610535578063d18d944b1461053f578063dd62ed3e14610568578063fb86a404146105a557610179565b806395d89b41146104a2578063977b055b146104cd578063a9059cbb146104f857610179565b80634042b66f1461039057806370a08231146103bb5780637fb2689c146103f857806383bebced146104215780638da5cb5b1461044c57806394a5aa8d1461047757610179565b80632e7700f0116101235780632e7700f0146102a4578063313ce567146102cf57806333b5b62e146102fa57806334fcf43714610325578063355274ea1461034e5780633ccfd60b1461037957610179565b806306fdde031461017e578063095ea7b3146101a957806318160ddd146101e6578063186fd74d1461021157806323b872dd1461023c57806327506f531461027957610179565b36610179576101776105d0565b005b600080fd5b34801561018a57600080fd5b5061019361073b565b6040516101a091906117fe565b60405180910390f35b3480156101b557600080fd5b506101d060048036038101906101cb91906118b9565b6107cd565b6040516101dd9190611914565b60405180910390f35b3480156101f257600080fd5b506101fb6107f0565b604051610208919061193e565b60405180910390f35b34801561021d57600080fd5b506102266107fa565b604051610233919061193e565b60405180910390f35b34801561024857600080fd5b50610263600480360381019061025e9190611959565b610802565b6040516102709190611914565b60405180910390f35b34801561028557600080fd5b5061028e610831565b60405161029b9190611ace565b60405180910390f35b3480156102b057600080fd5b506102b9610904565b6040516102c6919061193e565b60405180910390f35b3480156102db57600080fd5b506102e461090e565b6040516102f19190611b0c565b60405180910390f35b34801561030657600080fd5b5061030f610917565b60405161031c919061193e565b60405180910390f35b34801561033157600080fd5b5061034c60048036038101906103479190611b27565b61091d565b005b34801561035a57600080fd5b506103636109b7565b604051610370919061193e565b60405180910390f35b34801561038557600080fd5b5061038e6109df565b005b34801561039c57600080fd5b506103a5610b1d565b6040516103b2919061193e565b60405180910390f35b3480156103c757600080fd5b506103e260048036038101906103dd9190611b54565b610b27565b6040516103ef919061193e565b60405180910390f35b34801561040457600080fd5b5061041f600480360381019061041a9190611b27565b610b6f565b005b34801561042d57600080fd5b50610436610b7c565b604051610443919061193e565b60405180910390f35b34801561045857600080fd5b50610461610b82565b60405161046e9190611ba2565b60405180910390f35b34801561048357600080fd5b5061048c610ba8565b604051610499919061193e565b60405180910390f35b3480156104ae57600080fd5b506104b7610bae565b6040516104c491906117fe565b60405180910390f35b3480156104d957600080fd5b506104e2610c40565b6040516104ef919061193e565b60405180910390f35b34801561050457600080fd5b5061051f600480360381019061051a91906118b9565b610c46565b60405161052c9190611914565b60405180910390f35b61053d6105d0565b005b34801561054b57600080fd5b5061056660048036038101906105619190611b27565b610c69565b005b34801561057457600080fd5b5061058f600480360381019061058a9190611bbd565b610d03565b60405161059c919061193e565b60405180910390f35b3480156105b157600080fd5b506105ba610d8a565b6040516105c7919061193e565b60405180910390f35b600033905060003490506105e48282610d90565b60006105ef82610ed0565b905061060682600754610f1390919063ffffffff16565b6007819055506106168382610f71565b6001600b60008282546106299190611c2c565b92505081905550600c60405180608001604052808573ffffffffffffffffffffffffffffffffffffffff16815260200184815260200183815260200142815250908060018154018082558091505060019003906000526020600020906004020160009091909190915060008201518160000160006101000a81548173ffffffffffffffffffffffffffffffffffffffff021916908373ffffffffffffffffffffffffffffffffffffffff16021790555060208201518160010155604082015181600201556060820151816003015550507f0d1a0d5e3d583a0e92588799dd06e50fd78c07daf05f0cc06d7b848b1ca445f18383834260405161072e9493929190611cbf565b60405180910390a1505050565b60606003805461074a90611d33565b80601f016020809104026020016040519081016040528092919081815260200182805461077690611d33565b80156107c35780601f10610798576101008083540402835291602001916107c3565b820191906000526020600020905b8154815290600101906020018083116107a657829003601f168201915b5050505050905090565b6000806107d8610ff3565b90506107e5818585610ffb565b600191505092915050565b6000600254905090565b600047905090565b60008061080d610ff3565b905061081a85828561100d565b6108258585856110a1565b60019150509392505050565b6060600c805480602002602001604051908101604052809291908181526020016000905b828210156108fb57838290600052602060002090600402016040518060800160405290816000820160009054906101000a900473ffffffffffffffffffffffffffffffffffffffff1673ffffffffffffffffffffffffffffffffffffffff1673ffffffffffffffffffffffffffffffffffffffff168152602001600182015481526020016002820154815260200160038201548152505081526020019060010190610855565b50505050905090565b6000600b54905090565b60006012905090565b60085481565b600560009054906101000a900473ffffffffffffffffffffffffffffffffffffffff1673ffffffffffffffffffffffffffffffffffffffff163373ffffffffffffffffffffffffffffffffffffffff16146109ad576040517f08c379a00000000000000000000000000000000000000000000000000000000081526004016109a490611db0565b60405180910390fd5b8060068190555050565b60007f0000000000000000000000000000000000000000000000000000000000000000905090565b600560009054906101000a900473ffffffffffffffffffffffffffffffffffffffff1673ffffffffffffffffffffffffffffffffffffffff163373ffffffffffffffffffffffffffffffffffffffff1614610a6f576040517f08c379a0000000000000000000000000000000000000000000000000000000008152600401610a6690611db0565b60405180910390fd5b60004711610ab2576040517f08c379a0000000000000000000000000000000000000000000000000000000008152600401610aa990611e1c565b60405180910390fd5b600560009054906101000a900473ffffffffffffffffffffffffffffffffffffffff1673ffffffffffffffffffffffffffffffffffffffff166108fc479081150290604051600060405180830381858888f19350505050158015610b1a573d6000803e3d6000fd5b50565b6000600754905090565b60008060008373ffffffffffffffffffffffffffffffffffffffff1673ffffffffffffffffffffffffffffffffffffffff168152602001908152602001600020549050919050565b610b793382610f71565b50565b60065481565b600560009054906101000a900473ffffffffffffffffffffffffffffffffffffffff1681565b60075481565b606060048054610bbd90611d33565b80601f0160208091040260200160405190810160405280929190818152602001828054610be990611d33565b8015610c365780601f10610c0b57610100808354040283529160200191610c36565b820191906000526020600020905b815481529060010190602001808311610c1957829003601f168201915b5050505050905090565b60095481565b600080610c51610ff3565b9050610c5e8185856110a1565b600191505092915050565b600560009054906101000a900473ffffffffffffffffffffffffffffffffffffffff1673ffffffffffffffffffffffffffffffffffffffff163373ffffffffffffffffffffffffffffffffffffffff1614610cf9576040517f08c379a0000000000000000000000000000000000000000000000000000000008152600401610cf090611db0565b60405180910390fd5b80600a8190555050565b6000600160008473ffffffffffffffffffffffffffffffffffffffff1673ffffffffffffffffffffffffffffffffffffffff16815260200190815260200160002060008373ffffffffffffffffffffffffffffffffffffffff1673ffffffffffffffffffffffffffffffffffffffff16815260200190815260200160002054905092915050565b600a5481565b600073ffffffffffffffffffffffffffffffffffffffff168273ffffffffffffffffffffffffffffffffffffffff1603610dff576040517f08c379a0000000000000000000000000000000000000000000000000000000008152600401610df690611e88565b60405180910390fd5b60008103610e42576040517f08c379a0000000000000000000000000000000000000000000000000000000008152600401610e3990611ef4565b60405180910390fd5b600854811015610e87576040517f08c379a0000000000000000000000000000000000000000000000000000000008152600401610e7e90611f86565b60405180910390fd5b600954811115610ecc576040517f08c379a0000000000000000000000000000000000000000000000000000000008152600401610ec390611f86565b60405180910390fd5b5050565b6000610f0c610edd61090e565b600a610ee991906120d9565b610efe6006548561119590919063ffffffff16565b6111df90919063ffffffff16565b9050919050565b6000808284610f229190611c2c565b905083811015610f67576040517f08c379a0000000000000000000000000000000000000000000000000000000008152600401610f5e90612170565b60405180910390fd5b8091505092915050565b600073ffffffffffffffffffffffffffffffffffffffff168273ffffffffffffffffffffffffffffffffffffffff1603610fe35760006040517fec442f05000000000000000000000000000000000000000000000000000000008152600401610fda919061219f565b60405180910390fd5b610fef60008383611259565b5050565b600033905090565b6110088383836001611269565b505050565b60006110198484610d03565b90507fffffffffffffffffffffffffffffffffffffffffffffffffffffffffffffffff811461109b578181101561108b578281836040517ffb8f41b2000000000000000000000000000000000000000000000000000000008152600401611082939291906121ba565b60405180910390fd5b61109a84848484036000611269565b5b50505050565b600073ffffffffffffffffffffffffffffffffffffffff168373ffffffffffffffffffffffffffffffffffffffff16036111135760006040517f96c6fd1e00000000000000000000000000000000000000000000000000000000815260040161110a919061219f565b60405180910390fd5b600073ffffffffffffffffffffffffffffffffffffffff168273ffffffffffffffffffffffffffffffffffffffff16036111855760006040517fec442f0500000000000000000000000000000000000000000000000000000000815260040161117c919061219f565b60405180910390fd5b611190838383611259565b505050565b60006111d783836040518060400160405280601a81526020017f536166654d6174683a206469766973696f6e206279207a65726f000000000000815250611440565b905092915050565b60008083036111f15760009050611253565b600082846111ff91906121f1565b905082848261120e9190612262565b1461124e576040517f08c379a000000000000000000000000000000000000000000000000000000000815260040161124590612305565b60405180910390fd5b809150505b92915050565b6112648383836114a3565b505050565b600073ffffffffffffffffffffffffffffffffffffffff168473ffffffffffffffffffffffffffffffffffffffff16036112db5760006040517fe602df050000000000000000000000000000000000000000000000000000000081526004016112d2919061219f565b60405180910390fd5b600073ffffffffffffffffffffffffffffffffffffffff168373ffffffffffffffffffffffffffffffffffffffff160361134d5760006040517f94280d62000000000000000000000000000000000000000000000000000000008152600401611344919061219f565b60405180910390fd5b81600160008673ffffffffffffffffffffffffffffffffffffffff1673ffffffffffffffffffffffffffffffffffffffff16815260200190815260200160002060008573ffffffffffffffffffffffffffffffffffffffff1673ffffffffffffffffffffffffffffffffffffffff16815260200190815260200160002081905550801561143a578273ffffffffffffffffffffffffffffffffffffffff168473ffffffffffffffffffffffffffffffffffffffff167f8c5be1e5ebec7d5bd14f71427d1e84f3dd0314c0f7b2291e5b200ac8c7c3b92584604051611431919061193e565b60405180910390a35b50505050565b60008083118290611487576040517f08c379a000000000000000000000000000000000000000000000000000000000815260040161147e91906117fe565b60405180910390fd5b50600083856114969190612262565b9050809150509392505050565b6114ae838383611549565b600073ffffffffffffffffffffffffffffffffffffffff168373ffffffffffffffffffffffffffffffffffffffff16036115445760006114ec6109b7565b905060006114f86107f0565b9050818111156115415780826040517f9e79f854000000000000000000000000000000000000000000000000000000008152600401611538929190612325565b60405180910390fd5b50505b505050565b600073ffffffffffffffffffffffffffffffffffffffff168373ffffffffffffffffffffffffffffffffffffffff160361159b57806002600082825461158f9190611c2c565b9250508190555061166e565b60008060008573ffffffffffffffffffffffffffffffffffffffff1673ffffffffffffffffffffffffffffffffffffffff16815260200190815260200160002054905081811015611627578381836040517fe450d38c00000000000000000000000000000000000000000000000000000000815260040161161e939291906121ba565b60405180910390fd5b8181036000808673ffffffffffffffffffffffffffffffffffffffff1673ffffffffffffffffffffffffffffffffffffffff16815260200190815260200160002081905550505b600073ffffffffffffffffffffffffffffffffffffffff168273ffffffffffffffffffffffffffffffffffffffff16036116b75780600260008282540392505081905550611704565b806000808473ffffffffffffffffffffffffffffffffffffffff1673ffffffffffffffffffffffffffffffffffffffff168152602001908152602001600020600082825401925050819055505b8173ffffffffffffffffffffffffffffffffffffffff168373ffffffffffffffffffffffffffffffffffffffff167fddf252ad1be2c89b69c2b068fc378daa952ba7f163c4a11628f55a4df523b3ef83604051611761919061193e565b60405180910390a3505050565b600081519050919050565b600082825260208201905092915050565b60005b838110156117a857808201518184015260208101905061178d565b60008484015250505050565b6000601f19601f8301169050919050565b60006117d08261176e565b6117da8185611779565b93506117ea81856020860161178a565b6117f3816117b4565b840191505092915050565b6000602082019050818103600083015261181881846117c5565b905092915050565b600080fd5b600073ffffffffffffffffffffffffffffffffffffffff82169050919050565b600061185082611825565b9050919050565b61186081611845565b811461186b57600080fd5b50565b60008135905061187d81611857565b92915050565b6000819050919050565b61189681611883565b81146118a157600080fd5b50565b6000813590506118b38161188d565b92915050565b600080604083850312156118d0576118cf611820565b5b60006118de8582860161186e565b92505060206118ef858286016118a4565b9150509250929050565b60008115159050919050565b61190e816118f9565b82525050565b60006020820190506119296000830184611905565b92915050565b61193881611883565b82525050565b6000602082019050611953600083018461192f565b92915050565b60008060006060848603121561197257611971611820565b5b60006119808682870161186e565b93505060206119918682870161186e565b92505060406119a2868287016118a4565b9150509250925092565b600081519050919050565b600082825260208201905092915050565b6000819050602082019050919050565b6119e181611845565b82525050565b6119f081611883565b82525050565b608082016000820151611a0c60008501826119d8565b506020820151611a1f60208501826119e7565b506040820151611a3260408501826119e7565b506060820151611a4560608501826119e7565b50505050565b6000611a5783836119f6565b60808301905092915050565b6000602082019050919050565b6000611a7b826119ac565b611a8581856119b7565b9350611a90836119c8565b8060005b83811015611ac1578151611aa88882611a4b565b9750611ab383611a63565b925050600181019050611a94565b5085935050505092915050565b60006020820190508181036000830152611ae88184611a70565b905092915050565b600060ff82169050919050565b611b0681611af0565b82525050565b6000602082019050611b216000830184611afd565b92915050565b600060208284031215611b3d57611b3c611820565b5b6000611b4b848285016118a4565b91505092915050565b600060208284031215611b6a57611b69611820565b5b6000611b788482850161186e565b91505092915050565b6000611b8c82611825565b9050919050565b611b9c81611b81565b82525050565b6000602082019050611bb76000830184611b93565b92915050565b60008060408385031215611bd457611bd3611820565b5b6000611be28582860161186e565b9250506020611bf38582860161186e565b9150509250929050565b7f4e487b7100000000000000000000000000000000000000000000000000000000600052601160045260246000fd5b6000611c3782611883565b9150611c4283611883565b9250828201905080821115611c5a57611c59611bfd565b5b92915050565b6000819050919050565b6000611c85611c80611c7b84611825565b611c60565b611825565b9050919050565b6000611c9782611c6a565b9050919050565b6000611ca982611c8c565b9050919050565b611cb981611c9e565b82525050565b6000608082019050611cd46000830187611cb0565b611ce1602083018661192f565b611cee604083018561192f565b611cfb606083018461192f565b95945050505050565b7f4e487b7100000000000000000000000000000000000000000000000000000000600052602260045260246000fd5b60006002820490506001821680611d4b57607f821691505b602082108103611d5e57611d5d611d04565b5b50919050565b7f6f6e6c795f6f776e65725f616363657373000000000000000000000000000000600082015250565b6000611d9a601183611779565b9150611da582611d64565b602082019050919050565b60006020820190508181036000830152611dc981611d8d565b9050919050565b7f7a65726f5f62616c616e63650000000000000000000000000000000000000000600082015250565b6000611e06600c83611779565b9150611e1182611dd0565b602082019050919050565b60006020820190508181036000830152611e3581611df9565b9050919050565b7f496e76616c696420616464726573730000000000000000000000000000000000600082015250565b6000611e72600f83611779565b9150611e7d82611e3c565b602082019050919050565b60006020820190508181036000830152611ea181611e65565b9050919050565b7f496e73756666696369656e742062696400000000000000000000000000000000600082015250565b6000611ede601083611779565b9150611ee982611ea8565b602082019050919050565b60006020820190508181036000830152611f0d81611ed1565b9050919050565b7f496e73756666696369656e74206269642c20626964206e6f742077697468696e60008201527f206361702072616e676520302e31202d20312045544800000000000000000000602082015250565b6000611f70603683611779565b9150611f7b82611f14565b604082019050919050565b60006020820190508181036000830152611f9f81611f63565b9050919050565b60008160011c9050919050565b6000808291508390505b6001851115611ffd57808604811115611fd957611fd8611bfd565b5b6001851615611fe85780820291505b8081029050611ff685611fa6565b9450611fbd565b94509492505050565b60008261201657600190506120d2565b8161202457600090506120d2565b816001811461203a576002811461204457612073565b60019150506120d2565b60ff84111561205657612055611bfd565b5b8360020a91508482111561206d5761206c611bfd565b5b506120d2565b5060208310610133831016604e8410600b84101617156120a85782820a9050838111156120a3576120a2611bfd565b5b6120d2565b6120b58484846001611fb3565b925090508184048111156120cc576120cb611bfd565b5b81810290505b9392505050565b60006120e482611883565b91506120ef83611af0565b925061211c7fffffffffffffffffffffffffffffffffffffffffffffffffffffffffffffffff8484612006565b905092915050565b7f536166654d6174683a206164646974696f6e206f766572666c6f770000000000600082015250565b600061215a601b83611779565b915061216582612124565b602082019050919050565b600060208201905081810360008301526121898161214d565b9050919050565b61219981611845565b82525050565b60006020820190506121b46000830184612190565b92915050565b60006060820190506121cf6000830186612190565b6121dc602083018561192f565b6121e9604083018461192f565b949350505050565b60006121fc82611883565b915061220783611883565b925082820261221581611883565b9150828204841483151761222c5761222b611bfd565b5b5092915050565b7f4e487b7100000000000000000000000000000000000000000000000000000000600052601260045260246000fd5b600061226d82611883565b915061227883611883565b92508261228857612287612233565b5b828204905092915050565b7f536166654d6174683a206d756c7469706c69636174696f6e206f766572666c6f60008201527f7700000000000000000000000000000000000000000000000000000000000000602082015250565b60006122ef602183611779565b91506122fa82612293565b604082019050919050565b6000602082019050818103600083015261231e816122e2565b9050919050565b600060408201905061233a600083018561192f565b612347602083018461192f565b939250505056fea264697066735822122006c2c420ad61b263854f82487da4a6ef6b3be805ae5ac77e1bb2819ca43818da64736f6c63430008140033",
  "linkReferences": {},
  "deployedLinkReferences": {}
}